ARM Linker, 4.1 [Build 894] [Professional (MDK + RL-ARM)]

==============================================================================

Section Cross References

    startup_stm32f4xx.o(STACK) refers (Special) to heapauxi.o(.text) for __use_two_region_memory
    startup_stm32f4xx.o(HEAP) refers (Special) to heapauxi.o(.text) for __use_two_region_memory
    startup_stm32f4xx.o(RESET) refers (Special) to heapauxi.o(.text) for __use_two_region_memory
    startup_stm32f4xx.o(RESET) refers to startup_stm32f4xx.o(STACK) for __initial_sp
    startup_stm32f4xx.o(RESET) refers to startup_stm32f4xx.o(.text) for Reset_Handler
    startup_stm32f4xx.o(RESET) refers to stm32f4xx_it.o(.text) for NMI_Handler
    startup_stm32f4xx.o(RESET) refers to timer.o(.text) for TIM2_IRQHandler
    startup_stm32f4xx.o(.text) refers (Special) to heapauxi.o(.text) for __use_two_region_memory
    startup_stm32f4xx.o(.text) refers to system_stm32f4xx.o(.text) for SystemInit
    startup_stm32f4xx.o(.text) refers to __main.o(!!!main) for __main
    startup_stm32f4xx.o(.text) refers to startup_stm32f4xx.o(HEAP) for Heap_Mem
    startup_stm32f4xx.o(.text) refers to startup_stm32f4xx.o(STACK) for Stack_Mem
    lan.o(.text) refers to rt_memcpy_v6.o(.text) for __aeabi_memcpy
    lan.o(.text) refers to stm32f4x7_eth.o(.text) for ETH_Prepare_Transmit_Descriptors
    lan.o(.text) refers to control.o(.text) for lan_settings
    lan.o(.text) refers to moddemod.o(.text) for putMsg
    lan.o(.text) refers to stm32f4x7_eth.o(.data) for DMATxDescToSet
    lan.o(.text) refers to lan.o(.data) for mac_addr
==============================================================================

Removing Unused input sections from the image.

    Removing lan.o(.emb_text), (8 bytes).
    Removing lan.o(.text), (120 bytes).
    Removing lan.o(.text), (120 bytes).
    Removing lan.o(.text), (56 bytes).
    Removing lan.o(.text), (36 bytes).
    Removing lan.o(.constdata), (4 bytes).
    Removing main.o(.emb_text), (8 bytes).
    Removing main.o(.constdata), (4 bytes).
    Removing stm32f4x7_eth_bsp.o(.emb_text), (8 bytes).
    Removing stm32f4xx_it.o(.emb_text), (8 bytes).
    Removing control.o(.emb_text), (8 bytes).
    Removing control.o(.constdata), (4 bytes).
    Removing timer.o(.emb_text), (8 bytes).
    Removing timer.o(.text), (22 bytes).
    Removing ad9361.o(.emb_text), (8 bytes).
    Removing moddemod.o(.emb_text), (8 bytes).
    Removing moddemod.o(.text), (2 bytes).
    Removing moddemod.o(.text), (2 bytes).
==============================================================================

Image Symbol Table

    Local Symbols

    Symbol Name                              Value     Ov Type        Size  Object(Section)

    ../../angel/boardlib.s                   0x00000000   Number         0  boardinit1.o ABSOLUTE
    ../../angel/boardlib.s                   0x00000000   Number         0  boardinit3.o ABSOLUTE
    ../../angel/boardlib.s                   0x00000000   Number         0  boardshut.o ABSOLUTE
    ../../angel/boardlib.s                   0x00000000   Number         0  boardinit2.o ABSOLUTE
    ../../angel/dclz77c.s                    0x00000000   Number         0  __dclz77c.o ABSOLUTE
    ../../angel/handlers.s                   0x00000000   Number         0  __scatter_zi.o ABSOLUTE
    ../../angel/kernel.s                     0x00000000   Number         0  rtexit2.o ABSOLUTE
    ../../angel/kernel.s                     0x00000000   Number         0  rtentry4.o ABSOLUTE
    ../../angel/kernel.s                     0x00000000   Number         0  rtentry2.o ABSOLUTE
    ../../angel/kernel.s                     0x00000000   Number         0  rtentry.o ABSOLUTE
    ../../angel/kernel.s                     0x00000000   Number         0  rtexit.o ABSOLUTE
    ../../angel/rt.s                         0x00000000   Number         0  rt_raise.o ABSOLUTE
    ../../angel/rt.s                         0x00000000   Number         0  rt_div0.o ABSOLUTE
    ../../angel/rt.s                         0x00000000   Number         0  aeabi_ldiv0_sigfpe.o ABSOLUTE
    ../../angel/rt.s                         0x00000000   Number         0  aeabi_ldiv0.o ABSOLUTE
    ../../angel/scatter.s                    0x00000000   Number         0  __scatter.o ABSOLUTE
    ../../angel/startup.s                    0x00000000   Number         0  __main.o ABSOLUTE
    ../../angel/sys.s                        0x00000000   Number         0  sys_stackheap_outer.o ABSOLUTE
    ../../angel/sys.s                        0x00000000   Number         0  use_no_semi.o ABSOLUTE
    ../../angel/sys.s                        0x00000000   Number         0  indicate_semi.o ABSOLUTE
    ../../angel/sys.s                        0x00000000   Number         0  libspace.o ABSOLUTE
    ../../angel/sysapp.c                     0x00000000   Number         0  sys_command.o ABSOLUTE
    ../../angel/sysapp.c                     0x00000000   Number         0  sys_exit.o ABSOLUTE
    ../../angel/sysapp.c                     0x00000000   Number         0  sys_wrch.o ABSOLUTE
    ../../armsys.c                           0x00000000   Number         0  no_argv.o ABSOLUTE
    ../../armsys.c                           0x00000000   Number         0  argv_veneer.o ABSOLUTE
    ../../armsys.c                           0x00000000   Number         0  argv_veneer.o ABSOLUTE
    ../../armsys.c                           0x00000000   Number         0  _get_argv_nomalloc.o ABSOLUTE
    ../../fpinit.s                           0x00000000   Number         0  fpinit.o ABSOLUTE
    ../../heapalloc.c                        0x00000000   Number         0  hrguard.o ABSOLUTE
    ../../heapaux.c                          0x00000000   Number         0  heapauxi.o ABSOLUTE
    ../../libinit.s                          0x00000000   Number         0  libinit2.o ABSOLUTE
    ../../libinit.s                          0x00000000   Number         0  libshutdown2.o ABSOLUTE
    ../../libinit.s                          0x00000000   Number         0  libinit.o ABSOLUTE
    ../../libinit.s                          0x00000000   Number         0  libshutdown.o ABSOLUTE
    ../../longlong.s                         0x00000000   Number         0  llushr.o ABSOLUTE
    ../../longlong.s                         0x00000000   Number         0  lludivv7m.o ABSOLUTE
    ../../longlong.s                         0x00000000   Number         0  llshl.o ABSOLUTE
    ../../memcpset.s                         0x00000000   Number         0  rt_memcpy_w.o ABSOLUTE
    ../../memcpset.s                         0x00000000   Number         0  rt_memcpy_v6.o ABSOLUTE
    ../../memcpset.s                         0x00000000   Number         0  rt_memclr_w.o ABSOLUTE
    ../../memcpset.s                         0x00000000   Number         0  rt_memclr.o ABSOLUTE
    ../../memcpset.s                         0x00000000   Number         0  aeabi_memset.o ABSOLUTE
    ../../signal.c                           0x00000000   Number         0  __raise.o ABSOLUTE
    ../../signal.c                           0x00000000   Number         0  defsig_abrt_inner.o ABSOLUTE
    ../../signal.c                           0x00000000   Number         0  defsig_rtred_inner.o ABSOLUTE
    ../../signal.c                           0x00000000   Number         0  defsig_segv_inner.o ABSOLUTE
    ../../signal.c                           0x00000000   Number         0  defsig_cppl_inner.o ABSOLUTE
    ../../signal.c                           0x00000000   Number         0  defsig_pvfn_inner.o ABSOLUTE
    ../../signal.c                           0x00000000   Number         0  defsig_stak_inner.o ABSOLUTE
    ../../signal.c                           0x00000000   Number         0  defsig_rtmem_formal.o ABSOLUTE
    ../../signal.c                           0x00000000   Number         0  defsig_rtmem_outer.o ABSOLUTE
    ../../signal.c                           0x00000000   Number         0  defsig_rtmem_inner.o ABSOLUTE
    ../../signal.c                           0x00000000   Number         0  defsig_general.o ABSOLUTE
    ../../signal.c                           0x00000000   Number         0  defsig_fpe_inner.o ABSOLUTE
    ../../signal.c                           0x00000000   Number         0  defsig_exit.o ABSOLUTE
    ../../signal.c                           0x00000000   Number         0  defsig_fpe_formal.o ABSOLUTE
    ../../signal.c                           0x00000000   Number         0  defsig_fpe_outer.o ABSOLUTE
    ../../signal.c                           0x00000000   Number         0  defsig_other.o ABSOLUTE
    ../../signal.s                           0x00000000   Number         0  defsig.o ABSOLUTE
    ../../stdlib.c                           0x00000000   Number         0  exit.o ABSOLUTE
    ../../string.c                           0x00000000   Number         0  memcmp.o ABSOLUTE
    ../../string.c                           0x00000000   Number         0  strcpy.o ABSOLUTE
    CMSIS\Device\ST\STM32F4xx\Source\Templates\system_stm32f4xx.c 0x00000000   Number         0  system_stm32f4xx.o ABSOLUTE
    CMSIS\\Device\\ST\\STM32F4xx\\Source\\Templates\\system_stm32f4xx.c 0x00000000   Number         0  system_stm32f4xx.o ABSOLUTE
    STM32F4x7_ETH_Driver\\src\\stm32f4x7_eth.c 0x00000000   Number         0  stm32f4x7_eth.o ABSOLUTE
    STM32F4x7_ETH_Driver\src\stm32f4x7_eth.c 0x00000000   Number         0  stm32f4x7_eth.o ABSOLUTE
    STM32F4xx_StdPeriph_Driver\\src\\misc.c  0x00000000   Number         0  misc.o ABSOLUTE
    STM32F4xx_StdPeriph_Driver\\src\\stm32f4xx_adc.c 0x00000000   Number         0  stm32f4xx_adc.o ABSOLUTE
    STM32F4xx_StdPeriph_Driver\\src\\stm32f4xx_can.c 0x00000000   Number         0  stm32f4xx_can.o ABSOLUTE
    STM32F4xx_StdPeriph_Driver\\src\\stm32f4xx_crc.c 0x00000000   Number         0  stm32f4xx_crc.o ABSOLUTE
    STM32F4xx_StdPeriph_Driver\\src\\stm32f4xx_dac.c 0x00000000   Number         0  stm32f4xx_dac.o ABSOLUTE
    STM32F4xx_StdPeriph_Driver\\src\\stm32f4xx_dbgmcu.c 0x00000000   Number         0  stm32f4xx_dbgmcu.o ABSOLUTE
    STM32F4xx_StdPeriph_Driver\\src\\stm32f4xx_dcmi.c 0x00000000   Number         0  stm32f4xx_dcmi.o ABSOLUTE
    STM32F4xx_StdPeriph_Driver\\src\\stm32f4xx_dma.c 0x00000000   Number         0  stm32f4xx_dma.o ABSOLUTE
    STM32F4xx_StdPeriph_Driver\\src\\stm32f4xx_exti.c 0x00000000   Number         0  stm32f4xx_exti.o ABSOLUTE
    STM32F4xx_StdPeriph_Driver\\src\\stm32f4xx_flash.c 0x00000000   Number         0  stm32f4xx_flash.o ABSOLUTE
    STM32F4xx_StdPeriph_Driver\\src\\stm32f4xx_fmc.c 0x00000000   Number         0  stm32f4xx_fmc.o ABSOLUTE
    STM32F4xx_StdPeriph_Driver\\src\\stm32f4xx_gpio.c 0x00000000   Number         0  stm32f4xx_gpio.o ABSOLUTE
    STM32F4xx_StdPeriph_Driver\\src\\stm32f4xx_i2c.c 0x00000000   Number         0  stm32f4xx_i2c.o ABSOLUTE
    STM32F4xx_StdPeriph_Driver\\src\\stm32f4xx_iwdg.c 0x00000000   Number         0  stm32f4xx_iwdg.o ABSOLUTE
    STM32F4xx_StdPeriph_Driver\\src\\stm32f4xx_pwr.c 0x00000000   Number         0  stm32f4xx_pwr.o ABSOLUTE
    STM32F4xx_StdPeriph_Driver\\src\\stm32f4xx_rcc.c 0x00000000   Number         0  stm32f4xx_rcc.o ABSOLUTE
    STM32F4xx_StdPeriph_Driver\\src\\stm32f4xx_rng.c 0x00000000   Number         0  stm32f4xx_rng.o ABSOLUTE
    STM32F4xx_StdPeriph_Driver\\src\\stm32f4xx_rtc.c 0x00000000   Number         0  stm32f4xx_rtc.o ABSOLUTE
    STM32F4xx_StdPeriph_Driver\\src\\stm32f4xx_sdio.c 0x00000000   Number         0  stm32f4xx_sdio.o ABSOLUTE
    STM32F4xx_StdPeriph_Driver\\src\\stm32f4xx_spi.c 0x00000000   Number         0  stm32f4xx_spi.o ABSOLUTE
    STM32F4xx_StdPeriph_Driver\\src\\stm32f4xx_syscfg.c 0x00000000   Number         0  stm32f4xx_syscfg.o ABSOLUTE
    STM32F4xx_StdPeriph_Driver\\src\\stm32f4xx_tim.c 0x00000000   Number         0  stm32f4xx_tim.o ABSOLUTE
    STM32F4xx_StdPeriph_Driver\\src\\stm32f4xx_usart.c 0x00000000   Number         0  stm32f4xx_usart.o ABSOLUTE
    STM32F4xx_StdPeriph_Driver\\src\\stm32f4xx_wwdg.c 0x00000000   Number         0  stm32f4xx_wwdg.o ABSOLUTE
    STM32F4xx_StdPeriph_Driver\src\misc.c    0x00000000   Number         0  misc.o ABSOLUTE
    STM32F4xx_StdPeriph_Driver\src\stm32f4xx_adc.c 0x00000000   Number         0  stm32f4xx_adc.o ABSOLUTE
    STM32F4xx_StdPeriph_Driver\src\stm32f4xx_can.c 0x00000000   Number         0  stm32f4xx_can.o ABSOLUTE
    STM32F4xx_StdPeriph_Driver\src\stm32f4xx_crc.c 0x00000000   Number         0  stm32f4xx_crc.o ABSOLUTE
    STM32F4xx_StdPeriph_Driver\src\stm32f4xx_dac.c 0x00000000   Number         0  stm32f4xx_dac.o ABSOLUTE
    STM32F4xx_StdPeriph_Driver\src\stm32f4xx_dbgmcu.c 0x00000000   Number         0  stm32f4xx_dbgmcu.o ABSOLUTE
    STM32F4xx_StdPeriph_Driver\src\stm32f4xx_dcmi.c 0x00000000   Number         0  stm32f4xx_dcmi.o ABSOLUTE
    STM32F4xx_StdPeriph_Driver\src\stm32f4xx_dma.c 0x00000000   Number         0  stm32f4xx_dma.o ABSOLUTE
    STM32F4xx_StdPeriph_Driver\src\stm32f4xx_exti.c 0x00000000   Number         0  stm32f4xx_exti.o ABSOLUTE
    STM32F4xx_StdPeriph_Driver\src\stm32f4xx_flash.c 0x00000000   Number         0  stm32f4xx_flash.o ABSOLUTE
    STM32F4xx_StdPeriph_Driver\src\stm32f4xx_fmc.c 0x00000000   Number         0  stm32f4xx_fmc.o ABSOLUTE
    STM32F4xx_StdPeriph_Driver\src\stm32f4xx_gpio.c 0x00000000   Number         0  stm32f4xx_gpio.o ABSOLUTE
    STM32F4xx_StdPeriph_Driver\src\stm32f4xx_i2c.c 0x00000000   Number         0  stm32f4xx_i2c.o ABSOLUTE
    STM32F4xx_StdPeriph_Driver\src\stm32f4xx_iwdg.c 0x00000000   Number         0  stm32f4xx_iwdg.o ABSOLUTE
    STM32F4xx_StdPeriph_Driver\src\stm32f4xx_pwr.c 0x00000000   Number         0  stm32f4xx_pwr.o ABSOLUTE
    STM32F4xx_StdPeriph_Driver\src\stm32f4xx_rcc.c 0x00000000   Number         0  stm32f4xx_rcc.o ABSOLUTE
    STM32F4xx_StdPeriph_Driver\src\stm32f4xx_rng.c 0x00000000   Number         0  stm32f4xx_rng.o ABSOLUTE
    STM32F4xx_StdPeriph_Driver\src\stm32f4xx_rtc.c 0x00000000   Number         0  stm32f4xx_rtc.o ABSOLUTE
    STM32F4xx_StdPeriph_Driver\src\stm32f4xx_sdio.c 0x00000000   Number         0  stm32f4xx_sdio.o ABSOLUTE
    STM32F4xx_StdPeriph_Driver\src\stm32f4xx_spi.c 0x00000000   Number         0  stm32f4xx_spi.o ABSOLUTE
    STM32F4xx_StdPeriph_Driver\src\stm32f4xx_syscfg.c 0x00000000   Number         0  stm32f4xx_syscfg.o ABSOLUTE
    STM32F4xx_StdPeriph_Driver\src\stm32f4xx_tim.c 0x00000000   Number         0  stm32f4xx_tim.o ABSOLUTE
    STM32F4xx_StdPeriph_Driver\src\stm32f4xx_usart.c 0x00000000   Number         0  stm32f4xx_usart.o ABSOLUTE
    STM32F4xx_StdPeriph_Driver\src\stm32f4xx_wwdg.c 0x00000000   Number         0  stm32f4xx_wwdg.o ABSOLUTE
    ad_library\\src\\platform.c              0x00000000   Number         0  platform.o ABSOLUTE
    ad_library\src\ad9361_api.c              0x00000000   Number         0  ad9361_api.o ABSOLUTE
    ad_library\src\ad9361_conv.c             0x00000000   Number         0  ad9361_conv.o ABSOLUTE
    ad_library\src\ad9361_lib.c              0x00000000   Number         0  ad9361_lib.o ABSOLUTE
    ad_library\src\platform.c                0x00000000   Number         0  platform.o ABSOLUTE
    ad_library\src\util.c                    0x00000000   Number         0  util.o ABSOLUTE
    dc.s                                     0x00000000   Number         0  dc.o ABSOLUTE
    startup_stm32f4xx.s                      0x00000000   Number         0  startup_stm32f4xx.o ABSOLUTE
    upp\\src\\ad9361.c                       0x00000000   Number         0  ad9361.o ABSOLUTE
    upp\\src\\control.c                      0x00000000   Number         0  control.o ABSOLUTE
    upp\\src\\flash.c                        0x00000000   Number         0  flash.o ABSOLUTE
    upp\\src\\lan.c                          0x00000000   Number         0  lan.o ABSOLUTE
    upp\\src\\main.c                         0x00000000   Number         0  main.o ABSOLUTE
    upp\\src\\moddemod.c                     0x00000000   Number         0  moddemod.o ABSOLUTE
    upp\\src\\stm32f4x7_eth_bsp.c            0x00000000   Number         0  stm32f4x7_eth_bsp.o ABSOLUTE
    upp\\src\\stm32f4xx_it.c                 0x00000000   Number         0  stm32f4xx_it.o ABSOLUTE
    upp\\src\\timer.c                        0x00000000   Number         0  timer.o ABSOLUTE
    upp\src\ad9361.c                         0x00000000   Number         0  ad9361.o ABSOLUTE
    upp\src\control.c                        0x00000000   Number         0  control.o ABSOLUTE
    upp\src\flash.c                          0x00000000   Number         0  flash.o ABSOLUTE
    upp\src\lan.c                            0x00000000   Number         0  lan.o ABSOLUTE
    upp\src\main.c                           0x00000000   Number         0  main.o ABSOLUTE
    upp\src\moddemod.c                       0x00000000   Number         0  moddemod.o ABSOLUTE
    upp\src\stm32f4x7_eth_bsp.c              0x00000000   Number         0  stm32f4x7_eth_bsp.o ABSOLUTE
    upp\src\stm32f4xx_it.c                   0x00000000   Number         0  stm32f4xx_it.o ABSOLUTE
    upp\src\timer.c                          0x00000000   Number         0  timer.o ABSOLUTE
    RESET                                    0x08000000   Section      392  startup_stm32f4xx.o(RESET)
    !!!main                                  0x08000188   Section        8  __main.o(!!!main)
    !!!scatter                               0x08000190   Section       52  __scatter.o(!!!scatter)
    !!dclz77c                                0x080001c4   Section      100  __dclz77c.o(!!dclz77c)
    !!handler_zi                             0x08000228   Section       28  __scatter_zi.o(!!handler_zi)
    .ARM.Collect$$libinit$$00000000          0x08000244   Section        6  libinit.o(.ARM.Collect$$libinit$$00000000)
    .ARM.Collect$$libinit$$00000006          0x0800024a   Section        0  libinit2.o(.ARM.Collect$$libinit$$00000006)
    .ARM.Collect$$libinit$$00000008          0x0800024a   Section        0  libinit2.o(.ARM.Collect$$libinit$$00000008)
    .ARM.Collect$$libinit$$0000000A          0x0800024a   Section        0  libinit2.o(.ARM.Collect$$libinit$$0000000A)
    .ARM.Collect$$libinit$$0000000D          0x0800024a   Section        0  libinit2.o(.ARM.Collect$$libinit$$0000000D)
    .ARM.Collect$$libinit$$0000000F          0x0800024a   Section        0  libinit2.o(.ARM.Collect$$libinit$$0000000F)
    .ARM.Collect$$libinit$$00000011          0x0800024a   Section        0  libinit2.o(.ARM.Collect$$libinit$$00000011)
    .ARM.Collect$$libinit$$00000013          0x0800024a   Section        0  libinit2.o(.ARM.Collect$$libinit$$00000013)
    .ARM.Collect$$libinit$$00000015          0x0800024a   Section        0  libinit2.o(.ARM.Collect$$libinit$$00000015)
    .ARM.Collect$$libinit$$00000017          0x0800024a   Section        0  libinit2.o(.ARM.Collect$$libinit$$00000017)
    .ARM.Collect$$libinit$$00000019          0x0800024a   Section        0  libinit2.o(.ARM.Collect$$libinit$$00000019)
    .ARM.Collect$$libinit$$0000001B          0x0800024a   Section        0  libinit2.o(.ARM.Collect$$libinit$$0000001B)
    .ARM.Collect$$libinit$$0000001D          0x0800024a   Section        0  libinit2.o(.ARM.Collect$$libinit$$0000001D)
    .ARM.Collect$$libinit$$0000001F          0x0800024a   Section        0  libinit2.o(.ARM.Collect$$libinit$$0000001F)
    .ARM.Collect$$libinit$$00000021          0x0800024a   Section        0  libinit2.o(.ARM.Collect$$libinit$$00000021)
    .ARM.Collect$$libinit$$00000028          0x0800024a   Section        0  libinit2.o(.ARM.Collect$$libinit$$00000028)
    .ARM.Collect$$libinit$$0000002A          0x0800024a   Section        0  libinit2.o(.ARM.Collect$$libinit$$0000002A)
    .ARM.Collect$$libinit$$0000002C          0x0800024a   Section        0  libinit2.o(.ARM.Collect$$libinit$$0000002C)
    .ARM.Collect$$libinit$$0000002E          0x0800024a   Section        0  libinit2.o(.ARM.Collect$$libinit$$0000002E)
    .ARM.Collect$$libinit$$0000002F          0x0800024a   Section        2  libinit2.o(.ARM.Collect$$libinit$$0000002F)
    .ARM.Collect$$libshutdown$$00000000      0x0800024c   Section        2  libshutdown.o(.ARM.Collect$$libshutdown$$00000000)
    .ARM.Collect$$libshutdown$$00000003      0x0800024e   Section        0  libshutdown2.o(.ARM.Collect$$libshutdown$$00000003)
    .ARM.Collect$$libshutdown$$00000006      0x0800024e   Section        0  libshutdown2.o(.ARM.Collect$$libshutdown$$00000006)
    .ARM.Collect$$libshutdown$$00000009      0x0800024e   Section        0  libshutdown2.o(.ARM.Collect$$libshutdown$$00000009)
    .ARM.Collect$$libshutdown$$0000000B      0x0800024e   Section        0  libshutdown2.o(.ARM.Collect$$libshutdown$$0000000B)
    .ARM.Collect$$libshutdown$$0000000E      0x0800024e   Section        0  libshutdown2.o(.ARM.Collect$$libshutdown$$0000000E)
    .ARM.Collect$$libshutdown$$0000000F      0x0800024e   Section        2  libshutdown2.o(.ARM.Collect$$libshutdown$$0000000F)
    .ARM.Collect$$rtentry$$00000000          0x08000250   Section        0  rtentry.o(.ARM.Collect$$rtentry$$00000000)
    .ARM.Collect$$rtentry$$00000002          0x08000250   Section        0  rtentry2.o(.ARM.Collect$$rtentry$$00000002)
    .ARM.Collect$$rtentry$$00000004          0x08000250   Section        6  rtentry4.o(.ARM.Collect$$rtentry$$00000004)
    .ARM.Collect$$rtentry$$00000009          0x08000256   Section        0  rtentry2.o(.ARM.Collect$$rtentry$$00000009)
    .ARM.Collect$$rtentry$$0000000A          0x08000256   Section        4  rtentry2.o(.ARM.Collect$$rtentry$$0000000A)
    .ARM.Collect$$rtentry$$0000000C          0x0800025a   Section        0  rtentry2.o(.ARM.Collect$$rtentry$$0000000C)
    .ARM.Collect$$rtentry$$0000000D          0x0800025a   Section        8  rtentry2.o(.ARM.Collect$$rtentry$$0000000D)
    .ARM.Collect$$rtexit$$00000000           0x08000262   Section        2  rtexit.o(.ARM.Collect$$rtexit$$00000000)
    .ARM.Collect$$rtexit$$00000002           0x08000264   Section        0  rtexit2.o(.ARM.Collect$$rtexit$$00000002)
    .ARM.Collect$$rtexit$$00000003           0x08000264   Section        4  rtexit2.o(.ARM.Collect$$rtexit$$00000003)
    .ARM.Collect$$rtexit$$00000004           0x08000268   Section        6  rtexit2.o(.ARM.Collect$$rtexit$$00000004)
    .text                                    0x08000270   Section       64  startup_stm32f4xx.o(.text)
    $v0                                      0x08000270   Number         0  startup_stm32f4xx.o(.text)
    .text                                    0x080002b0   Section        0  lan.o(.text)
    .text                                    0x08000bd0   Section        0  main.o(.text)
    .text                                    0x08000c20   Section        0  stm32f4x7_eth_bsp.o(.text)
    ETH_MACDMA_Config                        0x08000c21   Thumb Code   142  stm32f4x7_eth_bsp.o(.text)
    ETH_NVIC_Config                          0x08000caf   Thumb Code    42  stm32f4x7_eth_bsp.o(.text)
    ETH_GPIO_Config                          0x08000cd9   Thumb Code   256  stm32f4x7_eth_bsp.o(.text)
    .text                                    0x08000e08   Section        0  stm32f4xx_it.o(.text)
    .text                                    0x08000e50   Section        0  control.o(.text)
    .text                                    0x080015c0   Section        0  timer.o(.text)
    .text                                    0x080016d8   Section        0  ad9361.o(.text)
    .text                                    0x08001870   Section        0  moddemod.o(.text)
    FMC_GPIOConfig                           0x08001871   Thumb Code   420  moddemod.o(.text)
    .text                                    0x08001eb8   Section        0  flash.o(.text)
    .text                                    0x08001f7c   Section        0  system_stm32f4xx.o(.text)
    SetSysClock                              0x08001f7d   Thumb Code   252  system_stm32f4xx.o(.text)
    .text                                    0x080021b4   Section        0  misc.o(.text)
    .text                                    0x080022ac   Section        0  stm32f4xx_exti.o(.text)
    .text                                    0x08002364   Section        0  stm32f4xx_flash.o(.text)
    .text                                    0x080025bc   Section        0  stm32f4xx_gpio.o(.text)
    .text                                    0x08002a98   Section        0  stm32f4xx_rcc.o(.text)
    .text                                    0x08002cf8   Section        0  stm32f4xx_spi.o(.text)
    .text                                    0x080030c0   Section        0  stm32f4xx_syscfg.o(.text)
    .text                                    0x080030dc   Section        0  stm32f4xx_tim.o(.text)
    TI4_Config                               0x080032f5   Thumb Code    68  stm32f4xx_tim.o(.text)
    TI3_Config                               0x08003339   Thumb Code    64  stm32f4xx_tim.o(.text)
    TI2_Config                               0x08003379   Thumb Code    68  stm32f4xx_tim.o(.text)
    TI1_Config                               0x080033bd   Thumb Code    56  stm32f4xx_tim.o(.text)
    .text                                    0x08003614   Section        0  stm32f4xx_fmc.o(.text)
    .text                                    0x08003d1c   Section        0  stm32f4x7_eth.o(.text)
    ETH_Delay                                0x08003d1d   Thumb Code    14  stm32f4x7_eth.o(.text)
    .text                                    0x08004ccc   Section        0  ad9361_api.o(.text)
    .text                                    0x080059e8   Section        0  ad9361_conv.o(.text)
    .text                                    0x080059f0   Section        0  ad9361_lib.o(.text)
    __ad9361_spi_readf                       0x08005a67   Thumb Code    66  ad9361_lib.o(.text)
    __ad9361_spi_writef                      0x08005aed   Thumb Code    84  ad9361_lib.o(.text)
    ad9361_spi_writem                        0x08005b41   Thumb Code   102  ad9361_lib.o(.text)
    ad9361_int_loopback_fix_ch_cross         0x08005d49   Thumb Code    62  ad9361_lib.o(.text)
    ad9361_check_cal_done                    0x08005d87   Thumb Code    86  ad9361_lib.o(.text)
    ad9361_run_calibration                   0x08005ddd   Thumb Code    40  ad9361_lib.o(.text)
    ad9361_gt_tableindex                     0x08005e05   Thumb Code    94  ad9361_lib.o(.text)
    ad9361_gt                                0x08005e63   Thumb Code    18  ad9361_lib.o(.text)
    find_table_index                         0x08005e9b   Thumb Code   150  ad9361_lib.o(.text)
    ad9361_load_gt                           0x08005f31   Thumb Code   660  ad9361_lib.o(.text)
    ad9361_setup_ext_lna                     0x080061c5   Thumb Code   108  ad9361_lib.o(.text)
    ad9361_clkout_control                    0x08006231   Thumb Code    64  ad9361_lib.o(.text)
    ad9361_load_mixer_gm_subtable            0x08006271   Thumb Code   180  ad9361_lib.o(.text)
    ad9361_rfvco_tableindex                  0x080063b3   Thumb Code    26  ad9361_lib.o(.text)
    ad9361_rfpll_vco_init                    0x080063cd   Thumb Code   508  ad9361_lib.o(.text)
    ad9361_get_split_table_gain              0x080065c9   Thumb Code   280  ad9361_lib.o(.text)
    ad9361_get_full_table_gain               0x080066e1   Thumb Code    86  ad9361_lib.o(.text)
    set_split_table_gain                     0x080068bd   Thumb Code   152  ad9361_lib.o(.text)
    set_full_table_gain                      0x08006955   Thumb Code    80  ad9361_lib.o(.text)
    ad9361_gc_update                         0x080069a5   Thumb Code   680  ad9361_lib.o(.text)
    ad9361_rx_adc_setup                      0x08006c4d   Thumb Code  1910  ad9361_lib.o(.text)
    ad9361_rx_tia_calib                      0x080073c3   Thumb Code   338  ad9361_lib.o(.text)
    ad9361_rx_bb_analog_filter_calib         0x08007515   Thumb Code   292  ad9361_lib.o(.text)
    ad9361_tx_bb_analog_filter_calib         0x08007639   Thumb Code   204  ad9361_lib.o(.text)
    ad9361_tx_bb_second_filter_calib         0x08007705   Thumb Code   286  ad9361_lib.o(.text)
    ad9361_txrx_synth_cp_calib               0x08007823   Thumb Code   236  ad9361_lib.o(.text)
    ad9361_bb_dc_offset_calib                0x0800790f   Thumb Code    50  ad9361_lib.o(.text)
    ad9361_rf_dc_offset_calib                0x08007941   Thumb Code   206  ad9361_lib.o(.text)
    __ad9361_update_rf_bandwidth             0x08007a0f   Thumb Code   178  ad9361_lib.o(.text)
    __ad9361_tx_quad_calib                   0x08007ac1   Thumb Code   134  ad9361_lib.o(.text)
    ad9361_tx_quad_phase_search              0x08007b47   Thumb Code   162  ad9361_lib.o(.text)
    ad9361_tx_quad_calib                     0x08007c59   Thumb Code   754  ad9361_lib.o(.text)
    ad9361_trx_vco_cal_control               0x08007fff   Thumb Code    48  ad9361_lib.o(.text)
    ad9361_trx_ext_lo_control                0x0800802f   Thumb Code   432  ad9361_lib.o(.text)
    ad9361_set_ref_clk_cycles                0x080081df   Thumb Code    30  ad9361_lib.o(.text)
    ad9361_txmon_setup                       0x0800822f   Thumb Code   202  ad9361_lib.o(.text)
    ad9361_txmon_control                     0x080082f9   Thumb Code    84  ad9361_lib.o(.text)
    ad9361_pp_port_setup                     0x080083ab   Thumb Code   240  ad9361_lib.o(.text)
    ad9361_gc_setup                          0x0800849b   Thumb Code  3036  ad9361_lib.o(.text)
    ad9361_auxdac_set                        0x08009077   Thumb Code   238  ad9361_lib.o(.text)
    ad9361_auxdac_setup                      0x08009165   Thumb Code   182  ad9361_lib.o(.text)
    ad9361_auxadc_setup                      0x0800921b   Thumb Code   144  ad9361_lib.o(.text)
    ad9361_ctrl_outs_setup                   0x080092ab   Thumb Code    30  ad9361_lib.o(.text)
    ad9361_gpo_setup                         0x080092c9   Thumb Code   182  ad9361_lib.o(.text)
    ad9361_rssi_setup                        0x0800937f   Thumb Code   536  ad9361_lib.o(.text)
    ad9361_bb_clk_change_handler             0x08009597   Thumb Code    62  ad9361_lib.o(.text)
    ad9361_validate_trx_clock_chain          0x0800985b   Thumb Code   156  ad9361_lib.o(.text)
    ad9361_fastlock_readval                  0x08009a8d   Thumb Code    54  ad9361_lib.o(.text)
    ad9361_fastlock_writeval                 0x08009ac3   Thumb Code   112  ad9361_lib.o(.text)
    ad9361_fastlock_prepare                  0x08009b33   Thumb Code   336  ad9361_lib.o(.text)
    ad9361_ref_div_sel                       0x08009c83   Thumb Code    44  ad9361_lib.o(.text)
    ad9361_verify_fir_filter_coef            0x0800a38f   Thumb Code    28  ad9361_lib.o(.text)
    ad9361_get_clk_scaler                    0x0800a3ab   Thumb Code   580  ad9361_lib.o(.text)
    ad9361_to_refclk_scaler                  0x0800a5ef   Thumb Code    54  ad9361_lib.o(.text)
    ad9361_set_clk_scaler                    0x0800a625   Thumb Code   832  ad9361_lib.o(.text)
    ad9361_calc_rfpll_int_freq               0x0800ac55   Thumb Code    90  ad9361_lib.o(.text)
    ad9361_calc_rfpll_int_divder             0x0800acaf   Thumb Code   180  ad9361_lib.o(.text)
    ad9361_clk_register                      0x0800b40d   Thumb Code   376  ad9361_lib.o(.text)
    ad9361_set_muldiv                        0x0800b78b   Thumb Code    10  ad9361_lib.o(.text)
    .text                                    0x0800b878   Section        0  platform.o(.text)
    ad_usleep                                0x0800b879   Thumb Code    16  platform.o(.text)
    .text                                    0x0800bb20   Section        0  util.o(.text)
    .text                                    0x0800c00e   Section      238  lludivv7m.o(.text)
    .text                                    0x0800c0fc   Section       38  llshl.o(.text)
    .text                                    0x0800c122   Section       38  llushr.o(.text)
    .text                                    0x0800c148   Section        0  memcmp.o(.text)
    .text                                    0x0800c1a0   Section        0  strcpy.o(.text)
    .text                                    0x0800c1e8   Section      138  rt_memcpy_v6.o(.text)
    .text                                    0x0800c272   Section      100  rt_memcpy_w.o(.text)
    .text                                    0x0800c2d6   Section       16  aeabi_memset.o(.text)
    .text                                    0x0800c2e6   Section       68  rt_memclr.o(.text)
    .text                                    0x0800c32a   Section       78  rt_memclr_w.o(.text)
    .text                                    0x0800c378   Section        0  heapauxi.o(.text)
    .text                                    0x0800c37e   Section       74  sys_stackheap_outer.o(.text)
    .text                                    0x0800c3c8   Section        0  exit.o(.text)
    .text                                    0x0800c3d4   Section        8  libspace.o(.text)
    .text                                    0x0800c3dc   Section        0  sys_exit.o(.text)
    .text                                    0x0800c3e8   Section        2  use_no_semi.o(.text)
    .text                                    0x0800c3ea   Section        0  indicate_semi.o(.text)
    x$fpl$fpinit                             0x0800c3ea   Section       10  fpinit.o(x$fpl$fpinit)
    $v0                                      0x0800c3ea   Number         0  fpinit.o(x$fpl$fpinit)
    .constdata                               0x0800c3f8   Section      520  ad9361.o(.constdata)
    .constdata                               0x0800c600   Section        4  moddemod.o(.constdata)
    fifosz                                   0x0800c600   Data           4  moddemod.o(.constdata)
    .constdata                               0x0800c604   Section     6072  ad9361_lib.o(.constdata)
    SynthLUT_FDD                             0x0800c606   Data        2226  ad9361_lib.o(.constdata)
    SynthLUT_TDD                             0x0800ceb8   Data        2226  ad9361_lib.o(.constdata)
    full_gain_table                          0x0800d76a   Data         693  ad9361_lib.o(.constdata)
    full_gain_table_abs_gain                 0x0800da1f   Data         231  ad9361_lib.o(.constdata)
    split_gain_table                         0x0800db06   Data         369  ad9361_lib.o(.constdata)
    split_gain_table_abs_gain                0x0800dc77   Data         123  ad9361_lib.o(.constdata)
    gm_st_gain                               0x0800dcf2   Data          16  ad9361_lib.o(.constdata)
    gm_st_ctrl                               0x0800dd02   Data          16  ad9361_lib.o(.constdata)
    lna_table                                0x0800dd12   Data          12  ad9361_lib.o(.constdata)
    tia_table                                0x0800dd1e   Data           2  ad9361_lib.o(.constdata)
    mixer_table                              0x0800dd20   Data          48  ad9361_lib.o(.constdata)
    gain_step_calib_reg_val                  0x0800dd50   Data          80  ad9361_lib.o(.constdata)
    .conststring                             0x0800ddbc   Section       50  ad9361_lib.o(.conststring)
    .data                                    0x20000000   Section       39  lan.o(.data)
    .data                                    0x20000028   Section        4  stm32f4x7_eth_bsp.o(.data)
    .data                                    0x2000002c   Section       58  control.o(.data)
    T                                        0x20000060   Data           4  control.o(.data)
    .data                                    0x20000068   Section        8  timer.o(.data)
    .data                                    0x20000070   Section      620  ad9361.o(.data)
    .data                                    0x200002e0   Section      192  moddemod.o(.data)
    T                                        0x200002e0   Data           8  moddemod.o(.data)
    test_cnt                                 0x200002e8   Data           1  moddemod.o(.data)
    test_cnt                                 0x200002e9   Data           1  moddemod.o(.data)
    .data                                    0x200003a0   Section        4  flash.o(.data)
    .data                                    0x200003a4   Section       20  system_stm32f4xx.o(.data)
    .data                                    0x200003b8   Section       16  stm32f4xx_rcc.o(.data)
    APBAHBPrescTable                         0x200003b8   Data          16  stm32f4xx_rcc.o(.data)
    .data                                    0x200003c8   Section       16  stm32f4x7_eth.o(.data)
    .data                                    0x200003d8   Section      272  ad9361_lib.o(.data)
    .data                                    0x200004e8   Section        4  platform.o(.data)
    .bss                                     0x200004ec   Section     4034  lan.o(.bss)
    recomposed_frame                         0x200004ec   Data        1524  lan.o(.bss)
    .bss                                     0x200014ae   Section       42  control.o(.bss)
    .bss                                     0x200014d8   Section      520  ad9361.o(.bss)
    .bss                                     0x200016e0   Section    10444  moddemod.o(.bss)
    b                                        0x200016e0   Data          34  moddemod.o(.bss)
    .bss                                     0x20003fac   Section    77424  stm32f4x7_eth.o(.bss)
    .bss                                     0x20016e1c   Section     8000  platform.o(.bss)
    .bss                                     0x20018d5c   Section       96  libspace.o(.bss)
    HEAP                                     0x20018dc0   Section     4096  startup_stm32f4xx.o(HEAP)
    Heap_Mem                                 0x20018dc0   Data        4096  startup_stm32f4xx.o(HEAP)
    STACK                                    0x20019dc0   Section     8192  startup_stm32f4xx.o(STACK)
    Stack_Mem                                0x20019dc0   Data        8192  startup_stm32f4xx.o(STACK)
    __initial_sp                             0x2001bdc0   Data           0  startup_stm32f4xx.o(STACK)

    Global Symbols

    Symbol Name                              Value     Ov Type        Size  Object(Section)

    BuildAttributes$$THM_ISAv4$E$P$D$K$B$S$7EM$VFPi3$EXTD16$VFPS$VFMA$PE$A:L22UL41UL21$X:L11$S22US41US21$IEEE1$IW$USESV6$~STKCKD$USESV7$~SHL$OSPACE$ROPI$EBA8$UX$STANDARDLIB$REQ8$PRES8$EABIv2 0x00000000   Number         0  anon$$obj.o ABSOLUTE
    __ARM_use_no_argv                        0x00000000   Number         0  main.o ABSOLUTE
    __ARM_exceptions_init                     - Undefined Weak Reference
    __alloca_initialize                       - Undefined Weak Reference
    __cpp_initialize__aeabi_                  - Undefined Weak Reference
    __cxa_finalize                            - Undefined Weak Reference
    __rt_locale                               - Undefined Weak Reference
    __sigvec_lookup                           - Undefined Weak Reference
    _atexit_init                              - Undefined Weak Reference
    _call_atexit_fns                          - Undefined Weak Reference
    _clock_init                               - Undefined Weak Reference
    _fp_trap_init                             - Undefined Weak Reference
    _fp_trap_shutdown                         - Undefined Weak Reference
    _get_lc_collate                           - Undefined Weak Reference
    _get_lc_ctype                             - Undefined Weak Reference
    _get_lc_monetary                          - Undefined Weak Reference
    _get_lc_numeric                           - Undefined Weak Reference
    _get_lc_time                              - Undefined Weak Reference
    _getenv_init                              - Undefined Weak Reference
    _handle_redirection                       - Undefined Weak Reference
    _init_alloc                               - Undefined Weak Reference
    _init_user_alloc                          - Undefined Weak Reference
    _initio                                   - Undefined Weak Reference
    _rand_init                                - Undefined Weak Reference
    _signal_finish                            - Undefined Weak Reference
    _signal_init                              - Undefined Weak Reference
    _terminate_alloc                          - Undefined Weak Reference
    _terminate_user_alloc                     - Undefined Weak Reference
    _terminateio                              - Undefined Weak Reference
    __Vectors_Size                           0x00000188   Number         0  startup_stm32f4xx.o ABSOLUTE
    __Vectors                                0x08000000   Data           4  startup_stm32f4xx.o(RESET)
    __Vectors_End                            0x08000188   Data           0  startup_stm32f4xx.o(RESET)
    __main                                   0x08000189   Thumb Code     8  __main.o(!!!main)
    __scatterload                            0x08000191   Thumb Code     0  __scatter.o(!!!scatter)
    __scatterload_rt2                        0x08000191   Thumb Code    44  __scatter.o(!!!scatter)
    __scatterload_rt2_thumb_only             0x08000191   Thumb Code     0  __scatter.o(!!!scatter)
    __scatterload_null                       0x0800019f   Thumb Code     0  __scatter.o(!!!scatter)
    __decompress                             0x080001c5   Thumb Code   100  __dclz77c.o(!!dclz77c)
    __decompress2                            0x080001c5   Thumb Code     0  __dclz77c.o(!!dclz77c)
    __scatterload_zeroinit                   0x08000229   Thumb Code    28  __scatter_zi.o(!!handler_zi)
    __rt_lib_init                            0x08000245   Thumb Code     0  libinit.o(.ARM.Collect$$libinit$$00000000)
    __rt_lib_init_alloca_1                   0x0800024b   Thumb Code     0  libinit2.o(.ARM.Collect$$libinit$$0000002A)
    __rt_lib_init_argv_1                     0x0800024b   Thumb Code     0  libinit2.o(.ARM.Collect$$libinit$$00000028)
    __rt_lib_init_atexit_1                   0x0800024b   Thumb Code     0  libinit2.o(.ARM.Collect$$libinit$$00000017)
    __rt_lib_init_clock_1                    0x0800024b   Thumb Code     0  libinit2.o(.ARM.Collect$$libinit$$0000001D)
    __rt_lib_init_cpp_1                      0x0800024b   Thumb Code     0  libinit2.o(.ARM.Collect$$libinit$$0000002E)
    __rt_lib_init_exceptions_1               0x0800024b   Thumb Code     0  libinit2.o(.ARM.Collect$$libinit$$0000002C)
    __rt_lib_init_fp_trap_1                  0x0800024b   Thumb Code     0  libinit2.o(.ARM.Collect$$libinit$$0000001B)
    __rt_lib_init_getenv_1                   0x0800024b   Thumb Code     0  libinit2.o(.ARM.Collect$$libinit$$0000001F)
    __rt_lib_init_heap_1                     0x0800024b   Thumb Code     0  libinit2.o(.ARM.Collect$$libinit$$00000006)
    __rt_lib_init_lc_collate_1               0x0800024b   Thumb Code     0  libinit2.o(.ARM.Collect$$libinit$$0000000D)
    __rt_lib_init_lc_ctype_1                 0x0800024b   Thumb Code     0  libinit2.o(.ARM.Collect$$libinit$$0000000F)
    __rt_lib_init_lc_monetary_1              0x0800024b   Thumb Code     0  libinit2.o(.ARM.Collect$$libinit$$00000011)
    __rt_lib_init_lc_numeric_1               0x0800024b   Thumb Code     0  libinit2.o(.ARM.Collect$$libinit$$00000013)
    __rt_lib_init_lc_time_1                  0x0800024b   Thumb Code     0  libinit2.o(.ARM.Collect$$libinit$$00000015)
    __rt_lib_init_rand_1                     0x0800024b   Thumb Code     0  libinit2.o(.ARM.Collect$$libinit$$0000000A)
    __rt_lib_init_return                     0x0800024b   Thumb Code     0  libinit2.o(.ARM.Collect$$libinit$$0000002F)
    __rt_lib_init_signal_1                   0x0800024b   Thumb Code     0  libinit2.o(.ARM.Collect$$libinit$$00000019)
    __rt_lib_init_stdio_1                    0x0800024b   Thumb Code     0  libinit2.o(.ARM.Collect$$libinit$$00000021)
    __rt_lib_init_user_alloc_1               0x0800024b   Thumb Code     0  libinit2.o(.ARM.Collect$$libinit$$00000008)
    __rt_lib_shutdown                        0x0800024d   Thumb Code     0  libshutdown.o(.ARM.Collect$$libshutdown$$00000000)
    __rt_lib_shutdown_fp_trap_1              0x0800024f   Thumb Code     0  libshutdown2.o(.ARM.Collect$$libshutdown$$00000006)
    __rt_lib_shutdown_heap_1                 0x0800024f   Thumb Code     0  libshutdown2.o(.ARM.Collect$$libshutdown$$0000000E)
    __rt_lib_shutdown_return                 0x0800024f   Thumb Code     0  libshutdown2.o(.ARM.Collect$$libshutdown$$0000000F)
    __rt_lib_shutdown_signal_1               0x0800024f   Thumb Code     0  libshutdown2.o(.ARM.Collect$$libshutdown$$00000009)
    __rt_lib_shutdown_stdio_1                0x0800024f   Thumb Code     0  libshutdown2.o(.ARM.Collect$$libshutdown$$00000003)
    __rt_lib_shutdown_user_alloc_1           0x0800024f   Thumb Code     0  libshutdown2.o(.ARM.Collect$$libshutdown$$0000000B)
    __rt_entry                               0x08000251   Thumb Code     0  rtentry.o(.ARM.Collect$$rtentry$$00000000)
    __rt_entry_presh_1                       0x08000251   Thumb Code     0  rtentry2.o(.ARM.Collect$$rtentry$$00000002)
    __rt_entry_sh                            0x08000251   Thumb Code     0  rtentry4.o(.ARM.Collect$$rtentry$$00000004)
    __rt_entry_li                            0x08000257   Thumb Code     0  rtentry2.o(.ARM.Collect$$rtentry$$0000000A)
    __rt_entry_postsh_1                      0x08000257   Thumb Code     0  rtentry2.o(.ARM.Collect$$rtentry$$00000009)
    __rt_entry_main                          0x0800025b   Thumb Code     0  rtentry2.o(.ARM.Collect$$rtentry$$0000000D)
    __rt_entry_postli_1                      0x0800025b   Thumb Code     0  rtentry2.o(.ARM.Collect$$rtentry$$0000000C)
    __rt_exit                                0x08000263   Thumb Code     0  rtexit.o(.ARM.Collect$$rtexit$$00000000)
    __rt_exit_ls                             0x08000265   Thumb Code     0  rtexit2.o(.ARM.Collect$$rtexit$$00000003)
    __rt_exit_prels_1                        0x08000265   Thumb Code     0  rtexit2.o(.ARM.Collect$$rtexit$$00000002)
    __rt_exit_exit                           0x08000269   Thumb Code     0  rtexit2.o(.ARM.Collect$$rtexit$$00000004)
    Reset_Handler                            0x08000271   Thumb Code     8  startup_stm32f4xx.o(.text)
    SVC_Handler                              0x08000283   Thumb Code     2  startup_stm32f4xx.o(.text)
    PendSV_Handler                           0x08000287   Thumb Code     2  startup_stm32f4xx.o(.text)
    SysTick_Handler                          0x08000289   Thumb Code     2  startup_stm32f4xx.o(.text)
    ADC_IRQHandler                           0x0800028b   Thumb Code     0  startup_stm32f4xx.o(.text)
    CAN1_RX0_IRQHandler                      0x0800028b   Thumb Code     0  startup_stm32f4xx.o(.text)
    CAN1_RX1_IRQHandler                      0x0800028b   Thumb Code     0  startup_stm32f4xx.o(.text)
    CAN1_SCE_IRQHandler                      0x0800028b   Thumb Code     0  startup_stm32f4xx.o(.text)
    CAN1_TX_IRQHandler                       0x0800028b   Thumb Code     0  startup_stm32f4xx.o(.text)
    CAN2_RX0_IRQHandler                      0x0800028b   Thumb Code     0  startup_stm32f4xx.o(.text)
    CAN2_RX1_IRQHandler                      0x0800028b   Thumb Code     0  startup_stm32f4xx.o(.text)
    CAN2_SCE_IRQHandler                      0x0800028b   Thumb Code     0  startup_stm32f4xx.o(.text)
    CAN2_TX_IRQHandler                       0x0800028b   Thumb Code     0  startup_stm32f4xx.o(.text)
    CRYP_IRQHandler                          0x0800028b   Thumb Code     0  startup_stm32f4xx.o(.text)
    DCMI_IRQHandler                          0x0800028b   Thumb Code     0  startup_stm32f4xx.o(.text)
    DMA1_Stream0_IRQHandler                  0x0800028b   Thumb Code     0  startup_stm32f4xx.o(.text)
    DMA1_Stream1_IRQHandler                  0x0800028b   Thumb Code     0  startup_stm32f4xx.o(.text)
    DMA1_Stream2_IRQHandler                  0x0800028b   Thumb Code     0  startup_stm32f4xx.o(.text)
    DMA1_Stream3_IRQHandler                  0x0800028b   Thumb Code     0  startup_stm32f4xx.o(.text)
    DMA1_Stream4_IRQHandler                  0x0800028b   Thumb Code     0  startup_stm32f4xx.o(.text)
    DMA1_Stream5_IRQHandler                  0x0800028b   Thumb Code     0  startup_stm32f4xx.o(.text)
    DMA1_Stream6_IRQHandler                  0x0800028b   Thumb Code     0  startup_stm32f4xx.o(.text)
    DMA1_Stream7_IRQHandler                  0x0800028b   Thumb Code     0  startup_stm32f4xx.o(.text)
    DMA2_Stream0_IRQHandler                  0x0800028b   Thumb Code     0  startup_stm32f4xx.o(.text)
    DMA2_Stream1_IRQHandler                  0x0800028b   Thumb Code     0  startup_stm32f4xx.o(.text)
    DMA2_Stream2_IRQHandler                  0x0800028b   Thumb Code     0  startup_stm32f4xx.o(.text)
    DMA2_Stream3_IRQHandler                  0x0800028b   Thumb Code     0  startup_stm32f4xx.o(.text)
    DMA2_Stream4_IRQHandler                  0x0800028b   Thumb Code     0  startup_stm32f4xx.o(.text)
    DMA2_Stream5_IRQHandler                  0x0800028b   Thumb Code     0  startup_stm32f4xx.o(.text)
    DMA2_Stream6_IRQHandler                  0x0800028b   Thumb Code     0  startup_stm32f4xx.o(.text)
    DMA2_Stream7_IRQHandler                  0x0800028b   Thumb Code     0  startup_stm32f4xx.o(.text)
    ETH_WKUP_IRQHandler                      0x0800028b   Thumb Code     0  startup_stm32f4xx.o(.text)
    EXTI0_IRQHandler                         0x0800028b   Thumb Code     0  startup_stm32f4xx.o(.text)
    EXTI15_10_IRQHandler                     0x0800028b   Thumb Code     0  startup_stm32f4xx.o(.text)
    EXTI2_IRQHandler                         0x0800028b   Thumb Code     0  startup_stm32f4xx.o(.text)
    EXTI3_IRQHandler                         0x0800028b   Thumb Code     0  startup_stm32f4xx.o(.text)
    EXTI4_IRQHandler                         0x0800028b   Thumb Code     0  startup_stm32f4xx.o(.text)
    EXTI9_5_IRQHandler                       0x0800028b   Thumb Code     0  startup_stm32f4xx.o(.text)
    FLASH_IRQHandler                         0x0800028b   Thumb Code     0  startup_stm32f4xx.o(.text)
    FPU_IRQHandler                           0x0800028b   Thumb Code     0  startup_stm32f4xx.o(.text)
    FSMC_IRQHandler                          0x0800028b   Thumb Code     0  startup_stm32f4xx.o(.text)
    HASH_RNG_IRQHandler                      0x0800028b   Thumb Code     0  startup_stm32f4xx.o(.text)
    I2C1_ER_IRQHandler                       0x0800028b   Thumb Code     0  startup_stm32f4xx.o(.text)
    I2C1_EV_IRQHandler                       0x0800028b   Thumb Code     0  startup_stm32f4xx.o(.text)
    I2C2_ER_IRQHandler                       0x0800028b   Thumb Code     0  startup_stm32f4xx.o(.text)
    I2C2_EV_IRQHandler                       0x0800028b   Thumb Code     0  startup_stm32f4xx.o(.text)
    I2C3_ER_IRQHandler                       0x0800028b   Thumb Code     0  startup_stm32f4xx.o(.text)
    I2C3_EV_IRQHandler                       0x0800028b   Thumb Code     0  startup_stm32f4xx.o(.text)
    OTG_FS_IRQHandler                        0x0800028b   Thumb Code     0  startup_stm32f4xx.o(.text)
    OTG_FS_WKUP_IRQHandler                   0x0800028b   Thumb Code     0  startup_stm32f4xx.o(.text)
    OTG_HS_EP1_IN_IRQHandler                 0x0800028b   Thumb Code     0  startup_stm32f4xx.o(.text)
    OTG_HS_EP1_OUT_IRQHandler                0x0800028b   Thumb Code     0  startup_stm32f4xx.o(.text)
    OTG_HS_IRQHandler                        0x0800028b   Thumb Code     0  startup_stm32f4xx.o(.text)
    OTG_HS_WKUP_IRQHandler                   0x0800028b   Thumb Code     0  startup_stm32f4xx.o(.text)
    PVD_IRQHandler                           0x0800028b   Thumb Code     0  startup_stm32f4xx.o(.text)
    RCC_IRQHandler                           0x0800028b   Thumb Code     0  startup_stm32f4xx.o(.text)
    RTC_Alarm_IRQHandler                     0x0800028b   Thumb Code     0  startup_stm32f4xx.o(.text)
    RTC_WKUP_IRQHandler                      0x0800028b   Thumb Code     0  startup_stm32f4xx.o(.text)
    SDIO_IRQHandler                          0x0800028b   Thumb Code     0  startup_stm32f4xx.o(.text)
    SPI1_IRQHandler                          0x0800028b   Thumb Code     0  startup_stm32f4xx.o(.text)
    SPI2_IRQHandler                          0x0800028b   Thumb Code     0  startup_stm32f4xx.o(.text)
    SPI3_IRQHandler                          0x0800028b   Thumb Code     0  startup_stm32f4xx.o(.text)
    TAMP_STAMP_IRQHandler                    0x0800028b   Thumb Code     0  startup_stm32f4xx.o(.text)
    TIM1_BRK_TIM9_IRQHandler                 0x0800028b   Thumb Code     0  startup_stm32f4xx.o(.text)
    TIM1_CC_IRQHandler                       0x0800028b   Thumb Code     0  startup_stm32f4xx.o(.text)
    TIM1_TRG_COM_TIM11_IRQHandler            0x0800028b   Thumb Code     0  startup_stm32f4xx.o(.text)
    TIM1_UP_TIM10_IRQHandler                 0x0800028b   Thumb Code     0  startup_stm32f4xx.o(.text)
    TIM3_IRQHandler                          0x0800028b   Thumb Code     0  startup_stm32f4xx.o(.text)
    TIM4_IRQHandler                          0x0800028b   Thumb Code     0  startup_stm32f4xx.o(.text)
    TIM5_IRQHandler                          0x0800028b   Thumb Code     0  startup_stm32f4xx.o(.text)
    TIM6_DAC_IRQHandler                      0x0800028b   Thumb Code     0  startup_stm32f4xx.o(.text)
    TIM7_IRQHandler                          0x0800028b   Thumb Code     0  startup_stm32f4xx.o(.text)
    TIM8_BRK_TIM12_IRQHandler                0x0800028b   Thumb Code     0  startup_stm32f4xx.o(.text)
    TIM8_CC_IRQHandler                       0x0800028b   Thumb Code     0  startup_stm32f4xx.o(.text)
    TIM8_TRG_COM_TIM14_IRQHandler            0x0800028b   Thumb Code     0  startup_stm32f4xx.o(.text)
    TIM8_UP_TIM13_IRQHandler                 0x0800028b   Thumb Code     0  startup_stm32f4xx.o(.text)
    UART4_IRQHandler                         0x0800028b   Thumb Code     0  startup_stm32f4xx.o(.text)
    UART5_IRQHandler                         0x0800028b   Thumb Code     0  startup_stm32f4xx.o(.text)
    USART1_IRQHandler                        0x0800028b   Thumb Code     0  startup_stm32f4xx.o(.text)
    USART2_IRQHandler                        0x0800028b   Thumb Code     0  startup_stm32f4xx.o(.text)
    USART3_IRQHandler                        0x0800028b   Thumb Code     0  startup_stm32f4xx.o(.text)
    USART6_IRQHandler                        0x0800028b   Thumb Code     0  startup_stm32f4xx.o(.text)
    WWDG_IRQHandler                          0x0800028b   Thumb Code     0  startup_stm32f4xx.o(.text)
    __user_initial_stackheap                 0x0800028d   Thumb Code     0  startup_stm32f4xx.o(.text)
    SendPacket                               0x080002b1   Thumb Code    30  lan.o(.text)
    eth_reply                                0x080002cf   Thumb Code    50  lan.o(.text)
    ip_cksum                                 0x08000301   Thumb Code    64  lan.o(.text)
    ip_reply                                 0x08000341   Thumb Code    84  lan.o(.text)
    udp_reply                                0x08000395   Thumb Code    82  lan.o(.text)
    udp_filter                               0x080003e7   Thumb Code   134  lan.o(.text)
    SetHdr                                   0x0800046d   Thumb Code   196  lan.o(.text)
    make_hdr                                 0x08000531   Thumb Code   186  lan.o(.text)
    resize_hdr                               0x080005eb   Thumb Code    80  lan.o(.text)
    icmp_filter                              0x0800063b   Thumb Code   110  lan.o(.text)
    ip_filter                                0x080006a9   Thumb Code   140  lan.o(.text)
    wSendPacket                              0x08000735   Thumb Code    36  lan.o(.text)
    eth_send                                 0x08000759   Thumb Code    30  lan.o(.text)
    arp_search_cache                         0x08000777   Thumb Code    46  lan.o(.text)
    arp_filter                               0x080007a5   Thumb Code   184  lan.o(.text)
    gratuitous_arp                           0x0800085d   Thumb Code    92  lan.o(.text)
    eth_filter                               0x080008b9   Thumb Code    54  lan.o(.text)
    eth_filter_msg                           0x080008ef   Thumb Code    60  lan.o(.text)
    lan_init                                 0x0800092b   Thumb Code   334  lan.o(.text)
    EthCheck                                 0x08000a79   Thumb Code   146  lan.o(.text)
    get_frame                                0x08000b0b   Thumb Code   174  lan.o(.text)
    main                                     0x08000bd1   Thumb Code    76  main.o(.text)
    ETH_BSP_Config                           0x08000dd9   Thumb Code    26  stm32f4x7_eth_bsp.o(.text)
    NMI_Handler                              0x08000e09   Thumb Code     2  stm32f4xx_it.o(.text)
    HardFault_Handler                        0x08000e0b   Thumb Code     4  stm32f4xx_it.o(.text)
    MemManage_Handler                        0x08000e0f   Thumb Code     4  stm32f4xx_it.o(.text)
    BusFault_Handler                         0x08000e13   Thumb Code     4  stm32f4xx_it.o(.text)
    UsageFault_Handler                       0x08000e17   Thumb Code     4  stm32f4xx_it.o(.text)
    DebugMon_Handler                         0x08000e1b   Thumb Code     2  stm32f4xx_it.o(.text)
    ETH_IRQHandler                           0x08000e1d   Thumb Code    32  stm32f4xx_it.o(.text)
    EXTI1_IRQHandler                         0x08000e3d   Thumb Code    18  stm32f4xx_it.o(.text)
    SendPayloadId                            0x08000e51   Thumb Code    94  control.o(.text)
    SendState                                0x08000eaf   Thumb Code    14  control.o(.text)
    gratuitous_arp_periodic                  0x08000ebd   Thumb Code    38  control.o(.text)
    BroadcastSearchReply                     0x08000ee3   Thumb Code    58  control.o(.text)
    lan_settings                             0x08000f1d   Thumb Code   192  control.o(.text)
    errorMsg                                 0x08000fdd   Thumb Code    60  control.o(.text)
    setRx                                    0x08001019   Thumb Code   444  control.o(.text)
    setTx                                    0x080011d5   Thumb Code   652  control.o(.text)
    setEnv                                   0x08001461   Thumb Code    52  control.o(.text)
    state_init                               0x08001495   Thumb Code    98  control.o(.text)
    control                                  0x080014f7   Thumb Code    72  control.o(.text)
    getTimeUs                                0x080015c1   Thumb Code    20  timer.o(.text)
    getSysTime                               0x080015d5   Thumb Code    20  timer.o(.text)
    udelay                                   0x080015e9   Thumb Code    34  timer.o(.text)
    TIM2_IRQHandler                          0x0800160b   Thumb Code    48  timer.o(.text)
    TIM2IRQ_Config                           0x0800163b   Thumb Code    40  timer.o(.text)
    TIM2_Config                              0x08001663   Thumb Code   104  timer.o(.text)
    ad_config                                0x080016d9   Thumb Code    84  ad9361.o(.text)
    ad_reconfig_check                        0x0800172d   Thumb Code    72  ad9361.o(.text)
    ad_set_tx_freq                           0x08001775   Thumb Code    76  ad9361.o(.text)
    ad_set_rx_freq                           0x080017c1   Thumb Code    76  ad9361.o(.text)
    ad_set_tx_pad                            0x0800180d   Thumb Code     6  ad9361.o(.text)
    ad_init_struct                           0x08001813   Thumb Code    16  ad9361.o(.text)
    FMC_Init                                 0x08001a15   Thumb Code   100  moddemod.o(.text)
    QfifoHasSpace                            0x08001a79   Thumb Code    20  moddemod.o(.text)
    IfifoHasSpace                            0x08001a8d   Thumb Code    20  moddemod.o(.text)
    QfifoHasData                             0x08001aa1   Thumb Code    20  moddemod.o(.text)
    IfifoHasData                             0x08001ab5   Thumb Code    20  moddemod.o(.text)
    select_mode                              0x08001ac9   Thumb Code    58  moddemod.o(.text)
    select_fifo                              0x08001b03   Thumb Code    60  moddemod.o(.text)
    select_fifo_receive_mode                 0x08001b3f   Thumb Code    38  moddemod.o(.text)
    get_speed_code                           0x08001b65   Thumb Code    54  moddemod.o(.text)
    select_speed                             0x08001b9b   Thumb Code   140  moddemod.o(.text)
    checkFifoQ                               0x08001c27   Thumb Code    52  moddemod.o(.text)
    checkFifoI                               0x08001c5b   Thumb Code    78  moddemod.o(.text)
    putMsg                                   0x08001ca9   Thumb Code   296  moddemod.o(.text)
    sendToQ                                  0x08001dd1   Thumb Code   104  moddemod.o(.text)
    sendToI                                  0x08001e39   Thumb Code   104  moddemod.o(.text)
    crc16                                    0x08001eb9   Thumb Code    62  flash.o(.text)
    saveSettings                             0x08001ef7   Thumb Code   126  flash.o(.text)
    SystemInit                               0x08002079   Thumb Code    88  system_stm32f4xx.o(.text)
    SystemCoreClockUpdate                    0x080020d1   Thumb Code   178  system_stm32f4xx.o(.text)
    NVIC_PriorityGroupConfig                 0x080021b5   Thumb Code    52  misc.o(.text)
    NVIC_Init                                0x080021e9   Thumb Code   178  misc.o(.text)
    EXTI_GetITStatus                         0x080022ad   Thumb Code   154  stm32f4xx_exti.o(.text)
    EXTI_ClearITPendingBit                   0x08002347   Thumb Code    26  stm32f4xx_exti.o(.text)
    FLASH_Unlock                             0x08002365   Thumb Code    24  stm32f4xx_flash.o(.text)
    FLASH_Lock                               0x0800237d   Thumb Code    14  stm32f4xx_flash.o(.text)
    FLASH_GetStatus                          0x0800238b   Thumb Code    90  stm32f4xx_flash.o(.text)
    FLASH_WaitForLastOperation               0x080023e5   Thumb Code    26  stm32f4xx_flash.o(.text)
    FLASH_EraseSector                        0x080023ff   Thumb Code   280  stm32f4xx_flash.o(.text)
    FLASH_ProgramWord                        0x08002517   Thumb Code   110  stm32f4xx_flash.o(.text)
    FLASH_ClearFlag                          0x08002585   Thumb Code    32  stm32f4xx_flash.o(.text)
    GPIO_Init                                0x080025bd   Thumb Code   604  stm32f4xx_gpio.o(.text)
    GPIO_SetBits                             0x08002819   Thumb Code   102  stm32f4xx_gpio.o(.text)
    GPIO_ResetBits                           0x0800287f   Thumb Code   102  stm32f4xx_gpio.o(.text)
    GPIO_PinAFConfig                         0x080028e5   Thumb Code   390  stm32f4xx_gpio.o(.text)
    RCC_GetClocksFreq                        0x08002a99   Thumb Code   206  stm32f4xx_rcc.o(.text)
    RCC_AHB1PeriphClockCmd                   0x08002b67   Thumb Code    74  stm32f4xx_rcc.o(.text)
    RCC_AHB3PeriphClockCmd                   0x08002bb1   Thumb Code    74  stm32f4xx_rcc.o(.text)
    RCC_APB1PeriphClockCmd                   0x08002bfb   Thumb Code    74  stm32f4xx_rcc.o(.text)
    RCC_APB2PeriphClockCmd                   0x08002c45   Thumb Code    74  stm32f4xx_rcc.o(.text)
    RCC_AHB1PeriphResetCmd                   0x08002c8f   Thumb Code    74  stm32f4xx_rcc.o(.text)
    SPI_Init                                 0x08002cf9   Thumb Code   588  stm32f4xx_spi.o(.text)
    SPI_Cmd                                  0x08002f45   Thumb Code    92  stm32f4xx_spi.o(.text)
    SPI_I2S_ReceiveData                      0x08002fa1   Thumb Code    66  stm32f4xx_spi.o(.text)
    SPI_I2S_SendData                         0x08002fe3   Thumb Code    64  stm32f4xx_spi.o(.text)
    SPI_I2S_GetFlagStatus                    0x08003023   Thumb Code   130  stm32f4xx_spi.o(.text)
    SYSCFG_ETH_MediaInterfaceConfig          0x080030c1   Thumb Code    24  stm32f4xx_syscfg.o(.text)
    TIM_TimeBaseInit                         0x080030dd   Thumb Code   274  stm32f4xx_tim.o(.text)
    TIM_PrescalerConfig                      0x080031ef   Thumb Code   122  stm32f4xx_tim.o(.text)
    TIM_Cmd                                  0x08003269   Thumb Code   140  stm32f4xx_tim.o(.text)
    TIM_ITConfig                             0x080033f5   Thumb Code   158  stm32f4xx_tim.o(.text)
    TIM_GetITStatus                          0x08003493   Thumb Code   232  stm32f4xx_tim.o(.text)
    TIM_ClearITPendingBit                    0x0800357b   Thumb Code   102  stm32f4xx_tim.o(.text)
    FMC_NORSRAMInit                          0x08003615   Thumb Code  1702  stm32f4xx_fmc.o(.text)
    FMC_NORSRAMCmd                           0x08003cbb   Thumb Code    92  stm32f4xx_fmc.o(.text)
    ETH_DeInit                               0x08003d2b   Thumb Code    22  stm32f4x7_eth.o(.text)
    ETH_StructInit                           0x08003d41   Thumb Code   178  stm32f4x7_eth.o(.text)
    ETH_WritePHYRegister                     0x08003df3   Thumb Code   126  stm32f4x7_eth.o(.text)
    ETH_ReadPHYRegister                      0x08003e71   Thumb Code   126  stm32f4x7_eth.o(.text)
    ETH_Init                                 0x08003eef   Thumb Code  2226  stm32f4x7_eth.o(.text)
    ETH_DMAReceptionCmd                      0x080047a1   Thumb Code    48  stm32f4x7_eth.o(.text)
    ETH_DMATransmissionCmd                   0x080047d1   Thumb Code    48  stm32f4x7_eth.o(.text)
    ETH_MACReceptionCmd                      0x08004801   Thumb Code    48  stm32f4x7_eth.o(.text)
    ETH_FlushTransmitFIFO                    0x08004831   Thumb Code    14  stm32f4x7_eth.o(.text)
    ETH_MACTransmissionCmd                   0x0800483f   Thumb Code    48  stm32f4x7_eth.o(.text)
    ETH_Start                                0x0800486f   Thumb Code    98  stm32f4x7_eth.o(.text)
    ETH_MACAddressConfig                     0x080048d1   Thumb Code    72  stm32f4x7_eth.o(.text)
    ETH_Get_Received_Frame_interrupt         0x08004919   Thumb Code   262  stm32f4x7_eth.o(.text)
    ETH_Prepare_Transmit_Descriptors         0x08004a1f   Thumb Code   222  stm32f4x7_eth.o(.text)
    ETH_DMARxDescChainInit                   0x08004afd   Thumb Code    74  stm32f4x7_eth.o(.text)
    ETH_DMATxDescChainInit                   0x08004b47   Thumb Code    70  stm32f4x7_eth.o(.text)
    ETH_DMARxDescReceiveITConfig             0x08004b8d   Thumb Code    40  stm32f4x7_eth.o(.text)
    ETH_SoftwareReset                        0x08004bb5   Thumb Code    14  stm32f4x7_eth.o(.text)
    ETH_GetSoftwareResetStatus               0x08004bc3   Thumb Code    20  stm32f4x7_eth.o(.text)
    ETH_GetDMAFlagStatus                     0x08004bd7   Thumb Code   124  stm32f4x7_eth.o(.text)
    ETH_DMAITConfig                          0x08004c53   Thumb Code    66  stm32f4x7_eth.o(.text)
    ETH_DMAClearITPendingBit                 0x08004c95   Thumb Code    26  stm32f4x7_eth.o(.text)
    ad9361_init                              0x08004ccd   Thumb Code  3236  ad9361_api.o(.text)
    ad9361_set_en_state_machine_mode         0x08005971   Thumb Code   116  ad9361_api.o(.text)
    ad9361_dig_tune                          0x080059e9   Thumb Code     6  ad9361_conv.o(.text)
    ad9361_spi_readm                         0x080059f1   Thumb Code    84  ad9361_lib.o(.text)
    ad9361_spi_read                          0x08005a45   Thumb Code    34  ad9361_lib.o(.text)
    ad9361_spi_write                         0x08005aa9   Thumb Code    68  ad9361_lib.o(.text)
    ad9361_validate_rf_bw                    0x08005ba7   Thumb Code    72  ad9361_lib.o(.text)
    ad9361_validate_rfpll                    0x08005bef   Thumb Code    72  ad9361_lib.o(.text)
    ad9361_find_opt                          0x08005c37   Thumb Code    80  ad9361_lib.o(.text)
    ad9361_reset                             0x08005c87   Thumb Code    86  ad9361_lib.o(.text)
    ad9361_en_dis_tx                         0x08005cdd   Thumb Code    54  ad9361_lib.o(.text)
    ad9361_en_dis_rx                         0x08005d13   Thumb Code    54  ad9361_lib.o(.text)
    ad9361_to_clk                            0x08005e75   Thumb Code    20  ad9361_lib.o(.text)
    ad9361_from_clk                          0x08005e89   Thumb Code    18  ad9361_lib.o(.text)
    ad9361_set_tx_atten                      0x08006325   Thumb Code   142  ad9361_lib.o(.text)
    ad9361_ensm_get_state                    0x08006737   Thumb Code    28  ad9361_lib.o(.text)
    ad9361_ensm_force_state                  0x08006753   Thumb Code   208  ad9361_lib.o(.text)
    ad9361_ensm_restore_state                0x08006823   Thumb Code   138  ad9361_lib.o(.text)
    ad9361_ensm_restore_prev_state           0x080068ad   Thumb Code    16  ad9361_lib.o(.text)
    ad9361_synth_lo_powerdown                0x08007be9   Thumb Code   112  ad9361_lib.o(.text)
    ad9361_tracking_control                  0x08007f4b   Thumb Code   180  ad9361_lib.o(.text)
    ad9361_set_dcxo_tune                     0x080081fd   Thumb Code    50  ad9361_lib.o(.text)
    ad9361_rf_port_setup                     0x0800834d   Thumb Code    94  ad9361_lib.o(.text)
    ad9361_ensm_set_state                    0x080095d5   Thumb Code   646  ad9361_lib.o(.text)
    ad9361_set_trx_clock_chain               0x080098f7   Thumb Code   282  ad9361_lib.o(.text)
    ad9361_set_ensm_mode                     0x08009a11   Thumb Code   124  ad9361_lib.o(.text)
    ad9361_clk_mux_set_parent                0x08009caf   Thumb Code    70  ad9361_lib.o(.text)
    ad9361_setup                             0x08009cf5   Thumb Code  1546  ad9361_lib.o(.text)
    ad9361_do_calib_run                      0x0800a2ff   Thumb Code   144  ad9361_lib.o(.text)
    ad9361_clk_factor_recalc_rate            0x0800a965   Thumb Code    26  ad9361_lib.o(.text)
    ad9361_clk_factor_round_rate             0x0800a97f   Thumb Code    94  ad9361_lib.o(.text)
    ad9361_clk_factor_set_rate               0x0800a9dd   Thumb Code    60  ad9361_lib.o(.text)
    ad9361_bbpll_recalc_rate                 0x0800aa19   Thumb Code    90  ad9361_lib.o(.text)
    ad9361_bbpll_round_rate                  0x0800aa73   Thumb Code   160  ad9361_lib.o(.text)
    ad9361_bbpll_set_rate                    0x0800ab13   Thumb Code   322  ad9361_lib.o(.text)
    ad9361_rfpll_int_recalc_rate             0x0800ad63   Thumb Code   324  ad9361_lib.o(.text)
    ad9361_rfpll_int_round_rate              0x0800aea7   Thumb Code    50  ad9361_lib.o(.text)
    ad9361_rfpll_int_set_rate                0x0800aed9   Thumb Code   682  ad9361_lib.o(.text)
    ad9361_rfpll_dummy_recalc_rate           0x0800b183   Thumb Code    18  ad9361_lib.o(.text)
    ad9361_rfpll_dummy_set_rate              0x0800b195   Thumb Code    22  ad9361_lib.o(.text)
    ad9361_rfpll_recalc_rate                 0x0800b1ab   Thumb Code   136  ad9361_lib.o(.text)
    ad9361_rfpll_round_rate                  0x0800b233   Thumb Code   168  ad9361_lib.o(.text)
    ad9361_rfpll_set_rate                    0x0800b2db   Thumb Code   306  ad9361_lib.o(.text)
    register_clocks                          0x0800b585   Thumb Code   518  ad9361_lib.o(.text)
    ad_free_all                              0x0800b889   Thumb Code     8  platform.o(.text)
    ad_malloc                                0x0800b891   Thumb Code    56  platform.o(.text)
    reset_gpio_init                          0x0800b8c9   Thumb Code    90  platform.o(.text)
    reset_gpio_high                          0x0800b923   Thumb Code    12  platform.o(.text)
    reset_gpio_low                           0x0800b92f   Thumb Code    12  platform.o(.text)
    spi_init                                 0x0800b93b   Thumb Code   242  platform.o(.text)
    SPI_SendByte                             0x0800ba2d   Thumb Code    52  platform.o(.text)
    spi_read                                 0x0800ba61   Thumb Code    50  platform.o(.text)
    spi_write_then_read                      0x0800ba93   Thumb Code    84  platform.o(.text)
    gpio_is_valid                            0x0800bae7   Thumb Code     6  platform.o(.text)
    gpio_set_value                           0x0800baed   Thumb Code     2  platform.o(.text)
    ad_udelay                                0x0800baef   Thumb Code    12  platform.o(.text)
    ad_mdelay                                0x0800bafb   Thumb Code    18  platform.o(.text)
    clk_prepare_enable                       0x0800bb21   Thumb Code     6  util.o(.text)
    clk_get_rate                             0x0800bb27   Thumb Code   178  util.o(.text)
    clk_set_rate                             0x0800bbd9   Thumb Code   730  util.o(.text)
    int_sqrt                                 0x0800beb3   Thumb Code    44  util.o(.text)
    ilog2                                    0x0800bedf   Thumb Code   160  util.o(.text)
    do_div                                   0x0800bf7f   Thumb Code    56  util.o(.text)
    find_first_bit                           0x0800bfb7   Thumb Code    54  util.o(.text)
    ERR_PTR                                  0x0800bfed   Thumb Code     2  util.o(.text)
    zmalloc                                  0x0800bfef   Thumb Code    32  util.o(.text)
    __aeabi_uldivmod                         0x0800c00f   Thumb Code     0  lludivv7m.o(.text)
    _ll_udiv                                 0x0800c00f   Thumb Code   238  lludivv7m.o(.text)
    __aeabi_llsl                             0x0800c0fd   Thumb Code     0  llshl.o(.text)
    _ll_shift_l                              0x0800c0fd   Thumb Code    38  llshl.o(.text)
    __aeabi_llsr                             0x0800c123   Thumb Code     0  llushr.o(.text)
    _ll_ushift_r                             0x0800c123   Thumb Code    38  llushr.o(.text)
    memcmp                                   0x0800c149   Thumb Code    88  memcmp.o(.text)
    strcpy                                   0x0800c1a1   Thumb Code    72  strcpy.o(.text)
    __aeabi_memcpy                           0x0800c1e9   Thumb Code     0  rt_memcpy_v6.o(.text)
    __rt_memcpy                              0x0800c1e9   Thumb Code   138  rt_memcpy_v6.o(.text)
    _memcpy_lastbytes                        0x0800c24f   Thumb Code     0  rt_memcpy_v6.o(.text)
    __aeabi_memcpy4                          0x0800c273   Thumb Code     0  rt_memcpy_w.o(.text)
    __aeabi_memcpy8                          0x0800c273   Thumb Code     0  rt_memcpy_w.o(.text)
    __rt_memcpy_w                            0x0800c273   Thumb Code   100  rt_memcpy_w.o(.text)
    _memcpy_lastbytes_aligned                0x0800c2bb   Thumb Code     0  rt_memcpy_w.o(.text)
    __aeabi_memset                           0x0800c2d7   Thumb Code    16  aeabi_memset.o(.text)
    __aeabi_memclr                           0x0800c2e7   Thumb Code     0  rt_memclr.o(.text)
    __rt_memclr                              0x0800c2e7   Thumb Code    68  rt_memclr.o(.text)
    _memset                                  0x0800c2eb   Thumb Code     0  rt_memclr.o(.text)
    __aeabi_memclr4                          0x0800c32b   Thumb Code     0  rt_memclr_w.o(.text)
    __aeabi_memclr8                          0x0800c32b   Thumb Code     0  rt_memclr_w.o(.text)
    __rt_memclr_w                            0x0800c32b   Thumb Code    78  rt_memclr_w.o(.text)
    _memset_w                                0x0800c32f   Thumb Code     0  rt_memclr_w.o(.text)
    __use_two_region_memory                  0x0800c379   Thumb Code     2  heapauxi.o(.text)
    __rt_heap_escrow$2region                 0x0800c37b   Thumb Code     2  heapauxi.o(.text)
    __rt_heap_expand$2region                 0x0800c37d   Thumb Code     2  heapauxi.o(.text)
    __user_setup_stackheap                   0x0800c37f   Thumb Code    74  sys_stackheap_outer.o(.text)
    exit                                     0x0800c3c9   Thumb Code    12  exit.o(.text)
    __user_libspace                          0x0800c3d5   Thumb Code     8  libspace.o(.text)
    __user_perproc_libspace                  0x0800c3d5   Thumb Code     0  libspace.o(.text)
    __user_perthread_libspace                0x0800c3d5   Thumb Code     0  libspace.o(.text)
    _sys_exit                                0x0800c3dd   Thumb Code     8  sys_exit.o(.text)
    __I$use$semihosting                      0x0800c3e9   Thumb Code     0  use_no_semi.o(.text)
    __use_no_semihosting_swi                 0x0800c3e9   Thumb Code     2  use_no_semi.o(.text)
    __semihosting_library_function           0x0800c3eb   Thumb Code     0  indicate_semi.o(.text)
    _fp_init                                 0x0800c3eb   Thumb Code    10  fpinit.o(x$fpl$fpinit)
    __fplib_config_fpu_vfp                   0x0800c3f3   Thumb Code     0  fpinit.o(x$fpl$fpinit)
    __fplib_config_pureend_doubles           0x0800c3f3   Thumb Code     0  fpinit.o(x$fpl$fpinit)
    default_init_param                       0x0800c3f8   Data         520  ad9361.o(.constdata)
    has_split_gt                             0x0800c604   Data           1  ad9361_lib.o(.constdata)
    have_tdd_tables                          0x0800c605   Data           1  ad9361_lib.o(.constdata)
    Region$$Table$$Base                      0x0800ddf0   Number         0  anon$$obj.o(Region$$Table)
    Region$$Table$$Limit                     0x0800de10   Number         0  anon$$obj.o(Region$$Table)
    wrethindx                                0x20000000   Data           2  lan.o(.data)
    rdethindx                                0x20000002   Data           2  lan.o(.data)
    overieth                                 0x20000004   Data           2  lan.o(.data)
    broadcast_mac                            0x20000006   Data           6  lan.o(.data)
    broadcast_ip                             0x2000000c   Data           4  lan.o(.data)
    mac_addr                                 0x20000010   Data           6  lan.o(.data)
    ip_addr                                  0x20000018   Data           4  lan.o(.data)
    ip_mask                                  0x2000001c   Data           4  lan.o(.data)
    ip_gateway                               0x20000020   Data           4  lan.o(.data)
    ListeningPort                            0x20000024   Data           2  lan.o(.data)
    arp_cache_wr                             0x20000026   Data           1  lan.o(.data)
    EthInitStatus                            0x20000028   Data           4  stm32f4x7_eth_bsp.o(.data)
    state                                    0x2000002c   Data          51  control.o(.data)
    TotalPacksSent                           0x20000064   Data           2  control.o(.data)
    Tim2cnt                                  0x20000068   Data           8  timer.o(.data)
    rx_fir_config                            0x20000070   Data         300  ad9361.o(.data)
    tx_fir_config                            0x2000019c   Data         300  ad9361.o(.data)
    AD9361_reconfig_cnt                      0x200002c8   Data           4  ad9361.o(.data)
    AD9361_cfg_time                          0x200002d0   Data           8  ad9361.o(.data)
    ad9361_phy                               0x200002d8   Data           4  ad9361.o(.data)
    wrcnt                                    0x200002ec   Data           8  moddemod.o(.data)
    rdcnt                                    0x200002f4   Data           8  moddemod.o(.data)
    overcnt                                  0x200002fc   Data           8  moddemod.o(.data)
    Qerr                                     0x20000308   Data           8  moddemod.o(.data)
    Ierr                                     0x20000310   Data           8  moddemod.o(.data)
    Q_error                                  0x20000318   Data           4  moddemod.o(.data)
    I_error                                  0x2000031c   Data           4  moddemod.o(.data)
    Qcycles                                  0x20000320   Data           8  moddemod.o(.data)
    Icycles                                  0x20000328   Data           8  moddemod.o(.data)
    time1                                    0x20000330   Data           8  moddemod.o(.data)
    time2                                    0x20000338   Data           8  moddemod.o(.data)
    dt                                       0x20000340   Data           8  moddemod.o(.data)
    time3                                    0x20000348   Data           8  moddemod.o(.data)
    time4                                    0x20000350   Data           8  moddemod.o(.data)
    dt2                                      0x20000358   Data           8  moddemod.o(.data)
    send_cnd_Q                               0x20000360   Data           8  moddemod.o(.data)
    send_cnd_I                               0x20000368   Data           8  moddemod.o(.data)
    time5                                    0x20000370   Data           8  moddemod.o(.data)
    time6                                    0x20000378   Data           8  moddemod.o(.data)
    time7                                    0x20000380   Data           8  moddemod.o(.data)
    time8                                    0x20000388   Data           8  moddemod.o(.data)
    dt3                                      0x20000390   Data           8  moddemod.o(.data)
    dt4                                      0x20000398   Data           8  moddemod.o(.data)
    AdapterS                                 0x200003a0   Data           4  flash.o(.data)
    SystemCoreClock                          0x200003a4   Data           4  system_stm32f4xx.o(.data)
    AHBPrescTable                            0x200003a8   Data          16  system_stm32f4xx.o(.data)
    DMATxDescToSet                           0x200003c8   Data           4  stm32f4x7_eth.o(.data)
    DMARxDescToGet                           0x200003cc   Data           4  stm32f4x7_eth.o(.data)
    DMA_RX_FRAME_infos                       0x200003d0   Data           4  stm32f4x7_eth.o(.data)
    Frame_Rx_index                           0x200003d4   Data           4  stm32f4x7_eth.o(.data)
    ad9361_adi_gt_info                       0x200003d8   Data         224  ad9361_lib.o(.data)
    ad9361_ensm_states                       0x200004b8   Data          48  ad9361_lib.o(.data)
    ad_words_used                            0x200004e8   Data           4  platform.o(.data)
    bufeth                                   0x20000ae0   Data         768  lan.o(.bss)
    arp_cache                                0x20000de0   Data          40  lan.o(.bss)
    TermFrame                                0x20000e08   Data        1164  lan.o(.bss)
    net_buf                                  0x20001294   Data         500  lan.o(.bss)
    SAnswer                                  0x20001488   Data          38  lan.o(.bss)
    inet_hdr                                 0x200014ae   Data          42  control.o(.bss)
    init_param                               0x200014d8   Data         520  ad9361.o(.bss)
    packQ                                    0x20001702   Data        1066  moddemod.o(.bss)
    packI                                    0x20001b2c   Data        1066  moddemod.o(.bss)
    msgbuf                                   0x20001f58   Data        2048  moddemod.o(.bss)
    speedcfg                                 0x20002758   Data          84  moddemod.o(.bss)
    bufI                                     0x200027ac   Data        2048  moddemod.o(.bss)
    bufQ                                     0x20002fac   Data        2048  moddemod.o(.bss)
    test_bufQ                                0x200037ac   Data        2048  moddemod.o(.bss)
    DMARxDscrTab                             0x20003fac   Data        4096  stm32f4x7_eth.o(.bss)
    DMATxDscrTab                             0x20004fac   Data         160  stm32f4x7_eth.o(.bss)
    Rx_Buff                                  0x2000504c   Data       65536  stm32f4x7_eth.o(.bss)
    Tx_Buff                                  0x2001504c   Data        7620  stm32f4x7_eth.o(.bss)
    RX_Frame_Descriptor                      0x20016e10   Data          12  stm32f4x7_eth.o(.bss)
    ad_malloc_buf                            0x20016e1c   Data        8000  platform.o(.bss)
    __libspace_start                         0x20018d5c   Data          96  libspace.o(.bss)
    __temporary_stack_top$libspace           0x20018dbc   Data           0  libspace.o(.bss)



==============================================================================

Memory Map of the image

  Image Entry point : 0x08000189

  Load Region LR_IROM1 (Base: 0x08000000, Size: 0x0000e2fc, Max: 0x00100000, ABSOLUTE, COMPRESSED[0x0000df64])

    Execution Region ER_IROM1 (Base: 0x08000000, Size: 0x0000de10, Max: 0x00100000, ABSOLUTE)

    Base Addr    Size         Type   Attr      Idx    E Section Name        Object

    0x08000000   0x00000188   Data   RO            3    RESET               startup_stm32f4xx.o
    0x08000188   0x00000008   Code   RO         5211  * !!!main             c_w.l(__main.o)
    0x08000190   0x00000034   Code   RO         5375    !!!scatter          c_w.l(__scatter.o)
    0x080001c4   0x00000064   Code   RO         5373    !!dclz77c           c_w.l(__dclz77c.o)
    0x08000228   0x0000001c   Code   RO         5377    !!handler_zi        c_w.l(__scatter_zi.o)
    0x08000244   0x00000006   Code   RO         5248    .ARM.Collect$$libinit$$00000000  c_w.l(libinit.o)
    0x0800024a   0x00000000   Code   RO         5262    .ARM.Collect$$libinit$$00000006  c_w.l(libinit2.o)
    0x0800024a   0x00000000   Code   RO         5264    .ARM.Collect$$libinit$$00000008  c_w.l(libinit2.o)
    0x0800024a   0x00000000   Code   RO         5266    .ARM.Collect$$libinit$$0000000A  c_w.l(libinit2.o)
    0x0800024a   0x00000000   Code   RO         5269    .ARM.Collect$$libinit$$0000000D  c_w.l(libinit2.o)
    0x0800024a   0x00000000   Code   RO         5271    .ARM.Collect$$libinit$$0000000F  c_w.l(libinit2.o)
    0x0800024a   0x00000000   Code   RO         5273    .ARM.Collect$$libinit$$00000011  c_w.l(libinit2.o)
    0x0800024a   0x00000000   Code   RO         5275    .ARM.Collect$$libinit$$00000013  c_w.l(libinit2.o)
    0x0800024a   0x00000000   Code   RO         5277    .ARM.Collect$$libinit$$00000015  c_w.l(libinit2.o)
    0x0800024a   0x00000000   Code   RO         5279    .ARM.Collect$$libinit$$00000017  c_w.l(libinit2.o)
    0x0800024a   0x00000000   Code   RO         5281    .ARM.Collect$$libinit$$00000019  c_w.l(libinit2.o)
    0x0800024a   0x00000000   Code   RO         5283    .ARM.Collect$$libinit$$0000001B  c_w.l(libinit2.o)
    0x0800024a   0x00000000   Code   RO         5285    .ARM.Collect$$libinit$$0000001D  c_w.l(libinit2.o)
    0x0800024a   0x00000000   Code   RO         5287    .ARM.Collect$$libinit$$0000001F  c_w.l(libinit2.o)
    0x0800024a   0x00000000   Code   RO         5289    .ARM.Collect$$libinit$$00000021  c_w.l(libinit2.o)
    0x0800024a   0x00000000   Code   RO         5293    .ARM.Collect$$libinit$$00000028  c_w.l(libinit2.o)
    0x0800024a   0x00000000   Code   RO         5295    .ARM.Collect$$libinit$$0000002A  c_w.l(libinit2.o)
    0x0800024a   0x00000000   Code   RO         5297    .ARM.Collect$$libinit$$0000002C  c_w.l(libinit2.o)
    0x0800024a   0x00000000   Code   RO         5299    .ARM.Collect$$libinit$$0000002E  c_w.l(libinit2.o)
    0x0800024a   0x00000002   Code   RO         5300    .ARM.Collect$$libinit$$0000002F  c_w.l(libinit2.o)
    0x0800024c   0x00000002   Code   RO         5331    .ARM.Collect$$libshutdown$$00000000  c_w.l(libshutdown.o)
    0x0800024e   0x00000000   Code   RO         5358    .ARM.Collect$$libshutdown$$00000003  c_w.l(libshutdown2.o)
    0x0800024e   0x00000000   Code   RO         5361    .ARM.Collect$$libshutdown$$00000006  c_w.l(libshutdown2.o)
    0x0800024e   0x00000000   Code   RO         5364    .ARM.Collect$$libshutdown$$00000009  c_w.l(libshutdown2.o)
    0x0800024e   0x00000000   Code   RO         5366    .ARM.Collect$$libshutdown$$0000000B  c_w.l(libshutdown2.o)
    0x0800024e   0x00000000   Code   RO         5369    .ARM.Collect$$libshutdown$$0000000E  c_w.l(libshutdown2.o)
    0x0800024e   0x00000002   Code   RO         5370    .ARM.Collect$$libshutdown$$0000000F  c_w.l(libshutdown2.o)
    0x08000250   0x00000000   Code   RO         5213    .ARM.Collect$$rtentry$$00000000  c_w.l(rtentry.o)
    0x08000250   0x00000000   Code   RO         5219    .ARM.Collect$$rtentry$$00000002  c_w.l(rtentry2.o)
    0x08000250   0x00000006   Code   RO         5231    .ARM.Collect$$rtentry$$00000004  c_w.l(rtentry4.o)
    0x08000256   0x00000000   Code   RO         5221    .ARM.Collect$$rtentry$$00000009  c_w.l(rtentry2.o)
    0x08000256   0x00000004   Code   RO         5222    .ARM.Collect$$rtentry$$0000000A  c_w.l(rtentry2.o)
    0x0800025a   0x00000000   Code   RO         5224    .ARM.Collect$$rtentry$$0000000C  c_w.l(rtentry2.o)
    0x0800025a   0x00000008   Code   RO         5225    .ARM.Collect$$rtentry$$0000000D  c_w.l(rtentry2.o)
    0x08000262   0x00000002   Code   RO         5252    .ARM.Collect$$rtexit$$00000000  c_w.l(rtexit.o)
    0x08000264   0x00000000   Code   RO         5306    .ARM.Collect$$rtexit$$00000002  c_w.l(rtexit2.o)
    0x08000264   0x00000004   Code   RO         5307    .ARM.Collect$$rtexit$$00000003  c_w.l(rtexit2.o)
    0x08000268   0x00000006   Code   RO         5308    .ARM.Collect$$rtexit$$00000004  c_w.l(rtexit2.o)
    0x0800026e   0x00000002   PAD
    0x08000270   0x00000040   Code   RO            4    .text               startup_stm32f4xx.o
    0x080002b0   0x00000920   Code   RO           11    .text               lan.o
    0x08000bd0   0x00000050   Code   RO          140    .text               main.o
    0x08000c20   0x000001e8   Code   RO          206    .text               stm32f4x7_eth_bsp.o
    0x08000e08   0x00000046   Code   RO          225    .text               stm32f4xx_it.o
    0x08000e4e   0x00000002   PAD
    0x08000e50   0x00000770   Code   RO          251    .text               control.o
    0x080015c0   0x00000118   Code   RO          273    .text               timer.o
    0x080016d8   0x00000198   Code   RO          301    .text               ad9361.o
    0x08001870   0x00000648   Code   RO          328    .text               moddemod.o
    0x08001eb8   0x000000c4   Code   RO          412    .text               flash.o
    0x08001f7c   0x00000238   Code   RO          443    .text               system_stm32f4xx.o
    0x080021b4   0x000000f8   Code   RO          465    .text               misc.o
    0x080022ac   0x000000b8   Code   RO         1345    .text               stm32f4xx_exti.o
    0x08002364   0x00000258   Code   RO         1397    .text               stm32f4xx_flash.o
    0x080025bc   0x000004dc   Code   RO         1606    .text               stm32f4xx_gpio.o
    0x08002a98   0x00000260   Code   RO         2084    .text               stm32f4xx_rcc.o
    0x08002cf8   0x000003c8   Code   RO         2959    .text               stm32f4xx_spi.o
    0x080030c0   0x0000001c   Code   RO         3101    .text               stm32f4xx_syscfg.o
    0x080030dc   0x00000538   Code   RO         3150    .text               stm32f4xx_tim.o
    0x08003614   0x00000708   Code   RO         3906    .text               stm32f4xx_fmc.o
    0x08003d1c   0x00000fb0   Code   RO         4071    .text               stm32f4x7_eth.o
    0x08004ccc   0x00000d1c   Code   RO         4456    .text               ad9361_api.o
    0x080059e8   0x00000006   Code   RO         4872    .text               ad9361_conv.o
    0x080059ee   0x00000002   PAD
    0x080059f0   0x00005e88   Code   RO         4901    .text               ad9361_lib.o
    0x0800b878   0x000002a8   Code   RO         5096    .text               platform.o
    0x0800bb20   0x000004ee   Code   RO         5175    .text               util.o
    0x0800c00e   0x000000ee   Code   RO         5189    .text               c_w.l(lludivv7m.o)
    0x0800c0fc   0x00000026   Code   RO         5191    .text               c_w.l(llshl.o)
    0x0800c122   0x00000026   Code   RO         5193    .text               c_w.l(llushr.o)
    0x0800c148   0x00000058   Code   RO         5195    .text               c_w.l(memcmp.o)
    0x0800c1a0   0x00000048   Code   RO         5197    .text               c_w.l(strcpy.o)
    0x0800c1e8   0x0000008a   Code   RO         5199    .text               c_w.l(rt_memcpy_v6.o)
    0x0800c272   0x00000064   Code   RO         5201    .text               c_w.l(rt_memcpy_w.o)
    0x0800c2d6   0x00000010   Code   RO         5203    .text               c_w.l(aeabi_memset.o)
    0x0800c2e6   0x00000044   Code   RO         5205    .text               c_w.l(rt_memclr.o)
    0x0800c32a   0x0000004e   Code   RO         5207    .text               c_w.l(rt_memclr_w.o)
    0x0800c378   0x00000006   Code   RO         5209    .text               c_w.l(heapauxi.o)
    0x0800c37e   0x0000004a   Code   RO         5235    .text               c_w.l(sys_stackheap_outer.o)
    0x0800c3c8   0x0000000c   Code   RO         5237    .text               c_w.l(exit.o)
    0x0800c3d4   0x00000008   Code   RO         5249    .text               c_w.l(libspace.o)
    0x0800c3dc   0x0000000c   Code   RO         5303    .text               c_w.l(sys_exit.o)
    0x0800c3e8   0x00000002   Code   RO         5320    .text               c_w.l(use_no_semi.o)
    0x0800c3ea   0x00000000   Code   RO         5322    .text               c_w.l(indicate_semi.o)
    0x0800c3ea   0x0000000a   Code   RO         5301    x$fpl$fpinit        fz_wm.l(fpinit.o)
    0x0800c3f4   0x00000004   PAD
    0x0800c3f8   0x00000208   Data   RO          303    .constdata          ad9361.o
    0x0800c600   0x00000004   Data   RO          340    .constdata          moddemod.o
    0x0800c604   0x000017b8   Data   RO         4931    .constdata          ad9361_lib.o
    0x0800ddbc   0x00000032   Data   RO         4932    .conststring        ad9361_lib.o
    0x0800ddee   0x00000002   PAD
    0x0800ddf0   0x00000020   Data   RO         5371    Region$$Table       anon$$obj.o


    Execution Region RW_IRAM1 (Base: 0x20000000, Size: 0x0001bdc0, Max: 0x00020000, ABSOLUTE, COMPRESSED[0x00000154])

    Base Addr    Size         Type   Attr      Idx    E Section Name        Object

    0x20000000   0x00000027   Data   RW           18    .data               lan.o
    0x20000027   0x00000001   PAD
    0x20000028   0x00000004   Data   RW          207    .data               stm32f4x7_eth_bsp.o
    0x2000002c   0x0000003a   Data   RW          254    .data               control.o
    0x20000066   0x00000002   PAD
    0x20000068   0x00000008   Data   RW          275    .data               timer.o
    0x20000070   0x0000026c   Data   RW          304    .data               ad9361.o
    0x200002dc   0x00000004   PAD
    0x200002e0   0x000000c0   Data   RW          341    .data               moddemod.o
    0x200003a0   0x00000004   Data   RW          414    .data               flash.o
    0x200003a4   0x00000014   Data   RW          444    .data               system_stm32f4xx.o
    0x200003b8   0x00000010   Data   RW         2109    .data               stm32f4xx_rcc.o
    0x200003c8   0x00000010   Data   RW         4134    .data               stm32f4x7_eth.o
    0x200003d8   0x00000110   Data   RW         4933    .data               ad9361_lib.o
    0x200004e8   0x00000004   Data   RW         5108    .data               platform.o
    0x200004ec   0x00000fc2   Zero   RW           16    .bss                lan.o
    0x200014ae   0x0000002a   Zero   RW          252    .bss                control.o
    0x200014d8   0x00000208   Zero   RW          302    .bss                ad9361.o
    0x200016e0   0x000028cc   Zero   RW          339    .bss                moddemod.o
    0x20003fac   0x00012e70   Zero   RW         4133    .bss                stm32f4x7_eth.o
    0x20016e1c   0x00001f40   Zero   RW         5107    .bss                platform.o
    0x20018d5c   0x00000060   Zero   RW         5250    .bss                c_w.l(libspace.o)
    0x20018dbc   0x00000004   PAD
    0x20018dc0   0x00001000   Zero   RW            2    HEAP                startup_stm32f4xx.o
    0x20019dc0   0x00002000   Zero   RW            1    STACK               startup_stm32f4xx.o


==============================================================================

Image component sizes


      Code (inc. data)   RO Data    RW Data    ZI Data      Debug   Object Name

       408         78        520        620        520       2544   ad9361.o
      3356         12          0          0          0       2928   ad9361_api.o
         6          0          0          0          0        590   ad9361_conv.o
     24200        566       6122        272          0      50608   ad9361_lib.o
      1904        386          0         58         42       4669   control.o
       196          8          0          4          0      11048   flash.o
      2336        128          0         39       4034     314030   lan.o
        80          4          0          0          0      76841   main.o
       248         18          0          0          0       1217   misc.o
      1608         54          4        192      10444      22424   moddemod.o
       680         20          0          4       8000       4681   platform.o
        64         26        392          0      12288        812   startup_stm32f4xx.o
      4016        110          0         16      77424       8409   stm32f4x7_eth.o
       488         22          0          4          0       1741   stm32f4x7_eth_bsp.o
       184          4          0          0          0        866   stm32f4xx_exti.o
       600         24          0          0          0       2421   stm32f4xx_flash.o
      1800          6          0          0          0       1921   stm32f4xx_fmc.o
      1244         46          0          0          0       1833   stm32f4xx_gpio.o
        70          0          0          0          0       1307   stm32f4xx_it.o
       608         32          0         16          0       4055   stm32f4xx_rcc.o
       968         28          0          0          0      10410   stm32f4xx_spi.o
        28          4          0          0          0        582   stm32f4xx_syscfg.o
      1336        104          0          0          0       4170   stm32f4xx_tim.o
       568         50          0         20          0       1971   system_stm32f4xx.o
       280         14          0          8          0      21751   timer.o
      1262         40          0          0          0       3780   util.o

    ----------------------------------------------------------------------
     48542       1784       7072       1260     112752     557609   Object Totals
         0          0         32          0          0          0   (incl. Generated)
         4          0          2          7          0          0   (incl. Padding)

    ----------------------------------------------------------------------

      Code (inc. data)   RO Data    RW Data    ZI Data      Debug   Library Member Name

       100          0          0          0          0          0   __dclz77c.o
         8          0          0          0          0         68   __main.o
        52          8          0          0          0          0   __scatter.o
        28          0          0          0          0          0   __scatter_zi.o
        16          0          0          0          0         68   aeabi_memset.o
        12          0          0          0          0         72   exit.o
         6          0          0          0          0        152   heapauxi.o
         0          0          0          0          0          0   indicate_semi.o
         6          0          0          0          0          0   libinit.o
         2          0          0          0          0          0   libinit2.o
         2          0          0          0          0          0   libshutdown.o
         2          0          0          0          0          0   libshutdown2.o
         8          4          0          0         96         68   libspace.o
        38          0          0          0          0         68   llshl.o
       238          0          0          0          0        100   lludivv7m.o
        38          0          0          0          0         68   llushr.o
        88          0          0          0          0         76   memcmp.o
        68          0          0          0          0         68   rt_memclr.o
        78          0          0          0          0         80   rt_memclr_w.o
       138          0          0          0          0         68   rt_memcpy_v6.o
       100          0          0          0          0         80   rt_memcpy_w.o
         0          0          0          0          0          0   rtentry.o
        12          0          0          0          0          0   rtentry2.o
         6          0          0          0          0          0   rtentry4.o
         2          0          0          0          0          0   rtexit.o
        10          0          0          0          0          0   rtexit2.o
        72          0          0          0          0         80   strcpy.o
        12          4          0          0          0         68   sys_exit.o
        74          0          0          0          0         80   sys_stackheap_outer.o
         2          0          0          0          0         68   use_no_semi.o
        10          0          0          0          0        116   fpinit.o

    ----------------------------------------------------------------------
      1234         16          0          0        100       1448   Library Totals
         6          0          0          0          4          0   (incl. Padding)

    ----------------------------------------------------------------------

      Code (inc. data)   RO Data    RW Data    ZI Data      Debug   Library Name

      1218         16          0          0         96       1332   c_w.l
        10          0          0          0          0        116   fz_wm.l

    ----------------------------------------------------------------------
      1234         16          0          0        100       1448   Library Totals

    ----------------------------------------------------------------------

==============================================================================


      Code (inc. data)   RO Data    RW Data    ZI Data      Debug   

     49776       1800       7072       1260     112852     553777   Grand Totals
     49776       1800       7072        340     112852     553777   ELF Image Totals (compressed)
     49776       1800       7072        340          0          0   ROM Totals

==============================================================================

    Total RO  Size (Code + RO Data)                56848 (  55.52kB)
    Total RW  Size (RW Data + ZI Data)            114112 ( 111.44kB)
    Total ROM Size (Code + RO Data + RW Data)      57188 (  55.85kB)

==============================================================================

