:020000020000FC
:200000000000000000000000000000000000000000000000000000000000000000000000E0
:200008000000000000000000000000000000000000000000000000000000000000000000D8
:200010000000000000000000000000000000000000000000000000000000000000000000D0
:200018000000000000000000000000000000000000000000000000000000000000000000C8
:00000001FF
